{
  "_format": "hh-sol-artifact-1",
  "contractName": "GreenSwitchSoulboundToken",
  "sourceName": "contracts/GreenSwitchSoulboundToken.sol",
  "abi": [
    {
      "inputs": [],
      "stateMutability": "nonpayable",
      "type": "constructor"
    },
    {
      "anonymous": false,
      "inputs": [
        {
          "indexed": true,
          "internalType": "address",
          "name": "owner",
          "type": "address"
        },
        {
          "indexed": true,
          "internalType": "address",
          "name": "approved",
          "type": "address"
        },
        {
          "indexed": true,
          "internalType": "uint256",
          "name": "tokenId",
          "type": "uint256"
        }
      ],
      "name": "Approval",
      "type": "event"
    },
    {
      "anonymous": false,
      "inputs": [
        {
          "indexed": true,
          "internalType": "address",
          "name": "owner",
          "type": "address"
        },
        {
          "indexed": true,
          "internalType": "address",
          "name": "operator",
          "type": "address"
        },
        {
          "indexed": false,
          "internalType": "bool",
          "name": "approved",
          "type": "bool"
        }
      ],
      "name": "ApprovalForAll",
      "type": "event"
    },
    {
      "anonymous": false,
      "inputs": [
        {
          "indexed": false,
          "internalType": "uint256",
          "name": "_fromTokenId",
          "type": "uint256"
        },
        {
          "indexed": false,
          "internalType": "uint256",
          "name": "_toTokenId",
          "type": "uint256"
        }
      ],
      "name": "BatchMetadataUpdate",
      "type": "event"
    },
    {
      "anonymous": false,
      "inputs": [
        {
          "indexed": false,
          "internalType": "uint256",
          "name": "_tokenId",
          "type": "uint256"
        }
      ],
      "name": "MetadataUpdate",
      "type": "event"
    },
    {
      "anonymous": false,
      "inputs": [
        {
          "indexed": true,
          "internalType": "address",
          "name": "previousOwner",
          "type": "address"
        },
        {
          "indexed": true,
          "internalType": "address",
          "name": "newOwner",
          "type": "address"
        }
      ],
      "name": "OwnershipTransferred",
      "type": "event"
    },
    {
      "anonymous": false,
      "inputs": [
        {
          "indexed": true,
          "internalType": "address",
          "name": "from",
          "type": "address"
        },
        {
          "indexed": true,
          "internalType": "address",
          "name": "to",
          "type": "address"
        },
        {
          "indexed": true,
          "internalType": "uint256",
          "name": "tokenId",
          "type": "uint256"
        }
      ],
      "name": "Transfer",
      "type": "event"
    },
    {
      "inputs": [
        {
          "internalType": "address",
          "name": "to",
          "type": "address"
        },
        {
          "internalType": "uint256",
          "name": "tokenId",
          "type": "uint256"
        }
      ],
      "name": "approve",
      "outputs": [],
      "stateMutability": "nonpayable",
      "type": "function"
    },
    {
      "inputs": [
        {
          "internalType": "address",
          "name": "owner",
          "type": "address"
        }
      ],
      "name": "balanceOf",
      "outputs": [
        {
          "internalType": "uint256",
          "name": "",
          "type": "uint256"
        }
      ],
      "stateMutability": "view",
      "type": "function"
    },
    {
      "inputs": [
        {
          "internalType": "uint256",
          "name": "tokenId",
          "type": "uint256"
        }
      ],
      "name": "burn",
      "outputs": [],
      "stateMutability": "nonpayable",
      "type": "function"
    },
    {
      "inputs": [
        {
          "internalType": "string",
          "name": "_url",
          "type": "string"
        }
      ],
      "name": "changeSBTImage",
      "outputs": [],
      "stateMutability": "nonpayable",
      "type": "function"
    },
    {
      "inputs": [
        {
          "internalType": "uint256",
          "name": "tokenId",
          "type": "uint256"
        }
      ],
      "name": "getApproved",
      "outputs": [
        {
          "internalType": "address",
          "name": "",
          "type": "address"
        }
      ],
      "stateMutability": "view",
      "type": "function"
    },
    {
      "inputs": [
        {
          "internalType": "address",
          "name": "owner",
          "type": "address"
        },
        {
          "internalType": "address",
          "name": "operator",
          "type": "address"
        }
      ],
      "name": "isApprovedForAll",
      "outputs": [
        {
          "internalType": "bool",
          "name": "",
          "type": "bool"
        }
      ],
      "stateMutability": "view",
      "type": "function"
    },
    {
      "inputs": [],
      "name": "name",
      "outputs": [
        {
          "internalType": "string",
          "name": "",
          "type": "string"
        }
      ],
      "stateMutability": "view",
      "type": "function"
    },
    {
      "inputs": [],
      "name": "owner",
      "outputs": [
        {
          "internalType": "address",
          "name": "",
          "type": "address"
        }
      ],
      "stateMutability": "view",
      "type": "function"
    },
    {
      "inputs": [
        {
          "internalType": "uint256",
          "name": "tokenId",
          "type": "uint256"
        }
      ],
      "name": "ownerOf",
      "outputs": [
        {
          "internalType": "address",
          "name": "",
          "type": "address"
        }
      ],
      "stateMutability": "view",
      "type": "function"
    },
    {
      "inputs": [],
      "name": "renounceOwnership",
      "outputs": [],
      "stateMutability": "nonpayable",
      "type": "function"
    },
    {
      "inputs": [
        {
          "internalType": "address",
          "name": "to",
          "type": "address"
        }
      ],
      "name": "safeMint",
      "outputs": [],
      "stateMutability": "nonpayable",
      "type": "function"
    },
    {
      "inputs": [
        {
          "internalType": "address",
          "name": "from",
          "type": "address"
        },
        {
          "internalType": "address",
          "name": "to",
          "type": "address"
        },
        {
          "internalType": "uint256",
          "name": "tokenId",
          "type": "uint256"
        }
      ],
      "name": "safeTransferFrom",
      "outputs": [],
      "stateMutability": "nonpayable",
      "type": "function"
    },
    {
      "inputs": [
        {
          "internalType": "address",
          "name": "from",
          "type": "address"
        },
        {
          "internalType": "address",
          "name": "to",
          "type": "address"
        },
        {
          "internalType": "uint256",
          "name": "tokenId",
          "type": "uint256"
        },
        {
          "internalType": "bytes",
          "name": "data",
          "type": "bytes"
        }
      ],
      "name": "safeTransferFrom",
      "outputs": [],
      "stateMutability": "nonpayable",
      "type": "function"
    },
    {
      "inputs": [
        {
          "internalType": "address",
          "name": "operator",
          "type": "address"
        },
        {
          "internalType": "bool",
          "name": "approved",
          "type": "bool"
        }
      ],
      "name": "setApprovalForAll",
      "outputs": [],
      "stateMutability": "nonpayable",
      "type": "function"
    },
    {
      "inputs": [
        {
          "internalType": "bytes4",
          "name": "interfaceId",
          "type": "bytes4"
        }
      ],
      "name": "supportsInterface",
      "outputs": [
        {
          "internalType": "bool",
          "name": "",
          "type": "bool"
        }
      ],
      "stateMutability": "view",
      "type": "function"
    },
    {
      "inputs": [],
      "name": "symbol",
      "outputs": [
        {
          "internalType": "string",
          "name": "",
          "type": "string"
        }
      ],
      "stateMutability": "view",
      "type": "function"
    },
    {
      "inputs": [
        {
          "internalType": "uint256",
          "name": "index",
          "type": "uint256"
        }
      ],
      "name": "tokenByIndex",
      "outputs": [
        {
          "internalType": "uint256",
          "name": "",
          "type": "uint256"
        }
      ],
      "stateMutability": "view",
      "type": "function"
    },
    {
      "inputs": [
        {
          "internalType": "address",
          "name": "owner",
          "type": "address"
        },
        {
          "internalType": "uint256",
          "name": "index",
          "type": "uint256"
        }
      ],
      "name": "tokenOfOwnerByIndex",
      "outputs": [
        {
          "internalType": "uint256",
          "name": "",
          "type": "uint256"
        }
      ],
      "stateMutability": "view",
      "type": "function"
    },
    {
      "inputs": [
        {
          "internalType": "uint256",
          "name": "tokenId",
          "type": "uint256"
        }
      ],
      "name": "tokenURI",
      "outputs": [
        {
          "internalType": "string",
          "name": "",
          "type": "string"
        }
      ],
      "stateMutability": "view",
      "type": "function"
    },
    {
      "inputs": [],
      "name": "totalSupply",
      "outputs": [
        {
          "internalType": "uint256",
          "name": "",
          "type": "uint256"
        }
      ],
      "stateMutability": "view",
      "type": "function"
    },
    {
      "inputs": [
        {
          "internalType": "address",
          "name": "from",
          "type": "address"
        },
        {
          "internalType": "address",
          "name": "to",
          "type": "address"
        },
        {
          "internalType": "uint256",
          "name": "tokenId",
          "type": "uint256"
        }
      ],
      "name": "transferFrom",
      "outputs": [],
      "stateMutability": "nonpayable",
      "type": "function"
    },
    {
      "inputs": [
        {
          "internalType": "address",
          "name": "newOwner",
          "type": "address"
        }
      ],
      "name": "transferOwnership",
      "outputs": [],
      "stateMutability": "nonpayable",
      "type": "function"
    },
    {
      "inputs": [],
      "name": "uri",
      "outputs": [
        {
          "internalType": "string",
          "name": "",
          "type": "string"
        }
      ],
      "stateMutability": "view",
      "type": "function"
    }
  ],
  "bytecode": "0x60806040526040518060800160405280604381526020016200385560439139600c90816200002e91906200043d565b503480156200003c57600080fd5b506040518060400160405280601b81526020017f477265656e53776974636820536f756c626f756e6420546f6b656e00000000008152506040518060400160405280600381526020017f47535400000000000000000000000000000000000000000000000000000000008152508160009081620000ba91906200043d565b508060019081620000cc91906200043d565b505050620000ef620000e3620000f560201b60201c565b620000fd60201b60201c565b62000524565b600033905090565b6000600b60009054906101000a900473ffffffffffffffffffffffffffffffffffffffff16905081600b60006101000a81548173ffffffffffffffffffffffffffffffffffffffff021916908373ffffffffffffffffffffffffffffffffffffffff1602179055508173ffffffffffffffffffffffffffffffffffffffff168173ffffffffffffffffffffffffffffffffffffffff167f8be0079c531659141344cd1fd0a4f28419497f9722a3daafe3b4186f6b6457e060405160405180910390a35050565b600081519050919050565b7f4e487b7100000000000000000000000000000000000000000000000000000000600052604160045260246000fd5b7f4e487b7100000000000000000000000000000000000000000000000000000000600052602260045260246000fd5b600060028204905060018216806200024557607f821691505b6020821081036200025b576200025a620001fd565b5b50919050565b60008190508160005260206000209050919050565b60006020601f8301049050919050565b600082821b905092915050565b600060088302620002c57fffffffffffffffffffffffffffffffffffffffffffffffffffffffffffffffff8262000286565b620002d1868362000286565b95508019841693508086168417925050509392505050565b6000819050919050565b6000819050919050565b60006200031e620003186200031284620002e9565b620002f3565b620002e9565b9050919050565b6000819050919050565b6200033a83620002fd565b62000352620003498262000325565b84845462000293565b825550505050565b600090565b620003696200035a565b620003768184846200032f565b505050565b5b818110156200039e57620003926000826200035f565b6001810190506200037c565b5050565b601f821115620003ed57620003b78162000261565b620003c28462000276565b81016020851015620003d2578190505b620003ea620003e18562000276565b8301826200037b565b50505b505050565b600082821c905092915050565b60006200041260001984600802620003f2565b1980831691505092915050565b60006200042d8383620003ff565b9150826002028217905092915050565b6200044882620001c3565b67ffffffffffffffff811115620004645762000463620001ce565b5b6200047082546200022c565b6200047d828285620003a2565b600060209050601f831160018114620004b55760008415620004a0578287015190505b620004ac85826200041f565b8655506200051c565b601f198416620004c58662000261565b60005b82811015620004ef57848901518255600182019150602085019450602081019050620004c8565b868310156200050f57848901516200050b601f891682620003ff565b8355505b6001600288020188555050505b505050505050565b61332180620005346000396000f3fe608060405234801561001057600080fd5b506004361061014d5760003560e01c80634f6ccce7116100c3578063a22cb4651161007c578063a22cb4651461039c578063b88d4fde146103b8578063c87b56dd146103d4578063e985e9c514610404578063eac989f814610434578063f2fde38b146104525761014d565b80634f6ccce7146102c65780636352211e146102f657806370a0823114610326578063715018a6146103565780638da5cb5b1461036057806395d89b411461037e5761014d565b80631b88432f116101155780631b88432f1461020a57806323b872dd146102265780632f745c591461024257806340d097c31461027257806342842e0e1461028e57806342966c68146102aa5761014d565b806301ffc9a71461015257806306fdde0314610182578063081812fc146101a0578063095ea7b3146101d057806318160ddd146101ec575b600080fd5b61016c600480360381019061016791906120f6565b61046e565b604051610179919061213e565b60405180910390f35b61018a610480565b60405161019791906121e9565b60405180910390f35b6101ba60048036038101906101b59190612241565b610512565b6040516101c791906122af565b60405180910390f35b6101ea60048036038101906101e591906122f6565b610558565b005b6101f4610593565b6040516102019190612345565b60405180910390f35b610224600480360381019061021f9190612495565b6105a0565b005b610240600480360381019061023b91906124de565b6105bb565b005b61025c600480360381019061025791906122f6565b6105f6565b6040516102699190612345565b60405180910390f35b61028c60048036038101906102879190612531565b61069b565b005b6102a860048036038101906102a391906124de565b61075d565b005b6102c460048036038101906102bf9190612241565b610798565b005b6102e060048036038101906102db9190612241565b61085d565b6040516102ed9190612345565b60405180910390f35b610310600480360381019061030b9190612241565b6108ce565b60405161031d91906122af565b60405180910390f35b610340600480360381019061033b9190612531565b610954565b60405161034d9190612345565b60405180910390f35b61035e610a0b565b005b610368610a1f565b60405161037591906122af565b60405180910390f35b610386610a49565b60405161039391906121e9565b60405180910390f35b6103b660048036038101906103b1919061258a565b610adb565b005b6103d260048036038101906103cd919061266b565b610b16565b005b6103ee60048036038101906103e99190612241565b610b51565b6040516103fb91906121e9565b60405180910390f35b61041e600480360381019061041991906126ee565b610b63565b60405161042b919061213e565b60405180910390f35b61043c610bf7565b60405161044991906121e9565b60405180910390f35b61046c60048036038101906104679190612531565b610c85565b005b600061047982610d08565b9050919050565b60606000805461048f9061275d565b80601f01602080910402602001604051908101604052809291908181526020018280546104bb9061275d565b80156105085780601f106104dd57610100808354040283529160200191610508565b820191906000526020600020905b8154815290600101906020018083116104eb57829003601f168201915b5050505050905090565b600061051d82610d69565b6004600083815260200190815260200160002060009054906101000a900473ffffffffffffffffffffffffffffffffffffffff169050919050565b6040517f08c379a000000000000000000000000000000000000000000000000000000000815260040161058a906127da565b60405180910390fd5b6000600880549050905090565b6105a8610db4565b80600c90816105b791906129a6565b5050565b6040517f08c379a00000000000000000000000000000000000000000000000000000000081526004016105ed906127da565b60405180910390fd5b600061060183610954565b8210610642576040517f08c379a000000000000000000000000000000000000000000000000000000000815260040161063990612aea565b60405180910390fd5b600660008473ffffffffffffffffffffffffffffffffffffffff1673ffffffffffffffffffffffffffffffffffffffff168152602001908152602001600020600083815260200190815260200160002054905092915050565b6106a3610db4565b6106ad600d610e32565b60006106b9600d610e48565b90506106c58282610e56565b61075981600c80546106d69061275d565b80601f01602080910402602001604051908101604052809291908181526020018280546107029061275d565b801561074f5780601f106107245761010080835404028352916020019161074f565b820191906000526020600020905b81548152906001019060200180831161073257829003601f168201915b5050505050610e74565b5050565b6040517f08c379a000000000000000000000000000000000000000000000000000000000815260040161078f906127da565b60405180910390fd5b60006107a3826108ce565b90508073ffffffffffffffffffffffffffffffffffffffff163373ffffffffffffffffffffffffffffffffffffffff16148061081157506107e2610a1f565b73ffffffffffffffffffffffffffffffffffffffff163373ffffffffffffffffffffffffffffffffffffffff16145b610850576040517f08c379a000000000000000000000000000000000000000000000000000000000815260040161084790612b7c565b60405180910390fd5b61085982610f18565b5050565b6000610867610593565b82106108a8576040517f08c379a000000000000000000000000000000000000000000000000000000000815260040161089f90612c0e565b60405180910390fd5b600882815481106108bc576108bb612c2e565b5b90600052602060002001549050919050565b6000806108da83610f24565b9050600073ffffffffffffffffffffffffffffffffffffffff168173ffffffffffffffffffffffffffffffffffffffff160361094b576040517f08c379a000000000000000000000000000000000000000000000000000000000815260040161094290612ca9565b60405180910390fd5b80915050919050565b60008073ffffffffffffffffffffffffffffffffffffffff168273ffffffffffffffffffffffffffffffffffffffff16036109c4576040517f08c379a00000000000000000000000000000000000000000000000000000000081526004016109bb90612d3b565b60405180910390fd5b600360008373ffffffffffffffffffffffffffffffffffffffff1673ffffffffffffffffffffffffffffffffffffffff168152602001908152602001600020549050919050565b610a13610db4565b610a1d6000610f61565b565b6000600b60009054906101000a900473ffffffffffffffffffffffffffffffffffffffff16905090565b606060018054610a589061275d565b80601f0160208091040260200160405190810160405280929190818152602001828054610a849061275d565b8015610ad15780601f10610aa657610100808354040283529160200191610ad1565b820191906000526020600020905b815481529060010190602001808311610ab457829003601f168201915b5050505050905090565b6040517f08c379a0000000000000000000000000000000000000000000000000000000008152600401610b0d906127da565b60405180910390fd5b6040517f08c379a0000000000000000000000000000000000000000000000000000000008152600401610b48906127da565b60405180910390fd5b6060610b5c82611027565b9050919050565b6000600560008473ffffffffffffffffffffffffffffffffffffffff1673ffffffffffffffffffffffffffffffffffffffff16815260200190815260200160002060008373ffffffffffffffffffffffffffffffffffffffff1673ffffffffffffffffffffffffffffffffffffffff16815260200190815260200160002060009054906101000a900460ff16905092915050565b600c8054610c049061275d565b80601f0160208091040260200160405190810160405280929190818152602001828054610c309061275d565b8015610c7d5780601f10610c5257610100808354040283529160200191610c7d565b820191906000526020600020905b815481529060010190602001808311610c6057829003601f168201915b505050505081565b610c8d610db4565b600073ffffffffffffffffffffffffffffffffffffffff168173ffffffffffffffffffffffffffffffffffffffff1603610cfc576040517f08c379a0000000000000000000000000000000000000000000000000000000008152600401610cf390612dcd565b60405180910390fd5b610d0581610f61565b50565b6000634906490660e01b7bffffffffffffffffffffffffffffffffffffffffffffffffffffffff1916827bffffffffffffffffffffffffffffffffffffffffffffffffffffffff19161480610d625750610d6182611139565b5b9050919050565b610d72816111b3565b610db1576040517f08c379a0000000000000000000000000000000000000000000000000000000008152600401610da890612ca9565b60405180910390fd5b50565b610dbc6111f4565b73ffffffffffffffffffffffffffffffffffffffff16610dda610a1f565b73ffffffffffffffffffffffffffffffffffffffff1614610e30576040517f08c379a0000000000000000000000000000000000000000000000000000000008152600401610e2790612e39565b60405180910390fd5b565b6001816000016000828254019250508190555050565b600081600001549050919050565b610e708282604051806020016040528060008152506111fc565b5050565b610e7d826111b3565b610ebc576040517f08c379a0000000000000000000000000000000000000000000000000000000008152600401610eb390612ecb565b60405180910390fd5b80600a60008481526020019081526020016000209081610edc91906129a6565b507ff8e1a15aba9398e019f0b49df1a4fde98ee17ae345cb5f6b5e2c27f5033e8ce782604051610f0c9190612345565b60405180910390a15050565b610f2181611257565b50565b60006002600083815260200190815260200160002060009054906101000a900473ffffffffffffffffffffffffffffffffffffffff169050919050565b6000600b60009054906101000a900473ffffffffffffffffffffffffffffffffffffffff16905081600b60006101000a81548173ffffffffffffffffffffffffffffffffffffffff021916908373ffffffffffffffffffffffffffffffffffffffff1602179055508173ffffffffffffffffffffffffffffffffffffffff168173ffffffffffffffffffffffffffffffffffffffff167f8be0079c531659141344cd1fd0a4f28419497f9722a3daafe3b4186f6b6457e060405160405180910390a35050565b606061103282610d69565b6000600a600084815260200190815260200160002080546110529061275d565b80601f016020809104026020016040519081016040528092919081815260200182805461107e9061275d565b80156110cb5780601f106110a0576101008083540402835291602001916110cb565b820191906000526020600020905b8154815290600101906020018083116110ae57829003601f168201915b5050505050905060006110dc6112aa565b905060008151036110f1578192505050611134565b60008251111561112657808260405160200161110e929190612f27565b60405160208183030381529060405292505050611134565b61112f846112c1565b925050505b919050565b60007f780e9d63000000000000000000000000000000000000000000000000000000007bffffffffffffffffffffffffffffffffffffffffffffffffffffffff1916827bffffffffffffffffffffffffffffffffffffffffffffffffffffffff191614806111ac57506111ab82611329565b5b9050919050565b60008073ffffffffffffffffffffffffffffffffffffffff166111d583610f24565b73ffffffffffffffffffffffffffffffffffffffff1614159050919050565b600033905090565b611206838361140b565b6112136000848484611628565b611252576040517f08c379a000000000000000000000000000000000000000000000000000000000815260040161124990612fbd565b60405180910390fd5b505050565b611260816117af565b6000600a600083815260200190815260200160002080546112809061275d565b9050146112a757600a600082815260200190815260200160002060006112a6919061202d565b5b50565b606060405180602001604052806000815250905090565b60606112cc82610d69565b60006112d66112aa565b905060008151116112f65760405180602001604052806000815250611321565b80611300846118fd565b604051602001611311929190612f27565b6040516020818303038152906040525b915050919050565b60007f80ac58cd000000000000000000000000000000000000000000000000000000007bffffffffffffffffffffffffffffffffffffffffffffffffffffffff1916827bffffffffffffffffffffffffffffffffffffffffffffffffffffffff191614806113f457507f5b5e139f000000000000000000000000000000000000000000000000000000007bffffffffffffffffffffffffffffffffffffffffffffffffffffffff1916827bffffffffffffffffffffffffffffffffffffffffffffffffffffffff1916145b806114045750611403826119cb565b5b9050919050565b600073ffffffffffffffffffffffffffffffffffffffff168273ffffffffffffffffffffffffffffffffffffffff160361147a576040517f08c379a000000000000000000000000000000000000000000000000000000000815260040161147190613029565b60405180910390fd5b611483816111b3565b156114c3576040517f08c379a00000000000000000000000000000000000000000000000000000000081526004016114ba90613095565b60405180910390fd5b6114d1600083836001611a35565b6114da816111b3565b1561151a576040517f08c379a000000000000000000000000000000000000000000000000000000000815260040161151190613095565b60405180910390fd5b6001600360008473ffffffffffffffffffffffffffffffffffffffff1673ffffffffffffffffffffffffffffffffffffffff16815260200190815260200160002060008282540192505081905550816002600083815260200190815260200160002060006101000a81548173ffffffffffffffffffffffffffffffffffffffff021916908373ffffffffffffffffffffffffffffffffffffffff160217905550808273ffffffffffffffffffffffffffffffffffffffff16600073ffffffffffffffffffffffffffffffffffffffff167fddf252ad1be2c89b69c2b068fc378daa952ba7f163c4a11628f55a4df523b3ef60405160405180910390a4611624600083836001611a47565b5050565b60006116498473ffffffffffffffffffffffffffffffffffffffff16611a4d565b156117a2578373ffffffffffffffffffffffffffffffffffffffff1663150b7a026116726111f4565b8786866040518563ffffffff1660e01b8152600401611694949392919061310a565b6020604051808303816000875af19250505080156116d057506040513d601f19601f820116820180604052508101906116cd919061316b565b60015b611752573d8060008114611700576040519150601f19603f3d011682016040523d82523d6000602084013e611705565b606091505b50600081510361174a576040517f08c379a000000000000000000000000000000000000000000000000000000000815260040161174190612fbd565b60405180910390fd5b805181602001fd5b63150b7a0260e01b7bffffffffffffffffffffffffffffffffffffffffffffffffffffffff1916817bffffffffffffffffffffffffffffffffffffffffffffffffffffffff1916149150506117a7565b600190505b949350505050565b60006117ba826108ce565b90506117ca816000846001611a35565b6117d3826108ce565b90506004600083815260200190815260200160002060006101000a81549073ffffffffffffffffffffffffffffffffffffffff02191690556001600360008373ffffffffffffffffffffffffffffffffffffffff1673ffffffffffffffffffffffffffffffffffffffff168152602001908152602001600020600082825403925050819055506002600083815260200190815260200160002060006101000a81549073ffffffffffffffffffffffffffffffffffffffff021916905581600073ffffffffffffffffffffffffffffffffffffffff168273ffffffffffffffffffffffffffffffffffffffff167fddf252ad1be2c89b69c2b068fc378daa952ba7f163c4a11628f55a4df523b3ef60405160405180910390a46118f9816000846001611a47565b5050565b60606000600161190c84611a70565b01905060008167ffffffffffffffff81111561192b5761192a61236a565b5b6040519080825280601f01601f19166020018201604052801561195d5781602001600182028036833780820191505090505b509050600082602001820190505b6001156119c0578080600190039150507f3031323334353637383961626364656600000000000000000000000000000000600a86061a8153600a85816119b4576119b3613198565b5b0494506000850361196b575b819350505050919050565b60007f01ffc9a7000000000000000000000000000000000000000000000000000000007bffffffffffffffffffffffffffffffffffffffffffffffffffffffff1916827bffffffffffffffffffffffffffffffffffffffffffffffffffffffff1916149050919050565b611a4184848484611bc3565b50505050565b50505050565b6000808273ffffffffffffffffffffffffffffffffffffffff163b119050919050565b600080600090507a184f03e93ff9f4daa797ed6e38ed64bf6a1f0100000000000000008310611ace577a184f03e93ff9f4daa797ed6e38ed64bf6a1f0100000000000000008381611ac457611ac3613198565b5b0492506040810190505b6d04ee2d6d415b85acef81000000008310611b0b576d04ee2d6d415b85acef81000000008381611b0157611b00613198565b5b0492506020810190505b662386f26fc100008310611b3a57662386f26fc100008381611b3057611b2f613198565b5b0492506010810190505b6305f5e1008310611b63576305f5e1008381611b5957611b58613198565b5b0492506008810190505b6127108310611b88576127108381611b7e57611b7d613198565b5b0492506004810190505b60648310611bab5760648381611ba157611ba0613198565b5b0492506002810190505b600a8310611bba576001810190505b80915050919050565b611bcf84848484611d21565b6001811115611c13576040517f08c379a0000000000000000000000000000000000000000000000000000000008152600401611c0a90613239565b60405180910390fd5b6000829050600073ffffffffffffffffffffffffffffffffffffffff168573ffffffffffffffffffffffffffffffffffffffff1603611c5a57611c5581611d27565b611c99565b8373ffffffffffffffffffffffffffffffffffffffff168573ffffffffffffffffffffffffffffffffffffffff1614611c9857611c978582611d70565b5b5b600073ffffffffffffffffffffffffffffffffffffffff168473ffffffffffffffffffffffffffffffffffffffff1603611cdb57611cd681611edd565b611d1a565b8473ffffffffffffffffffffffffffffffffffffffff168473ffffffffffffffffffffffffffffffffffffffff1614611d1957611d188482611fae565b5b5b5050505050565b50505050565b6008805490506009600083815260200190815260200160002081905550600881908060018154018082558091505060019003906000526020600020016000909190919091505550565b60006001611d7d84610954565b611d879190613288565b9050600060076000848152602001908152602001600020549050818114611e6c576000600660008673ffffffffffffffffffffffffffffffffffffffff1673ffffffffffffffffffffffffffffffffffffffff168152602001908152602001600020600084815260200190815260200160002054905080600660008773ffffffffffffffffffffffffffffffffffffffff1673ffffffffffffffffffffffffffffffffffffffff168152602001908152602001600020600084815260200190815260200160002081905550816007600083815260200190815260200160002081905550505b6007600084815260200190815260200160002060009055600660008573ffffffffffffffffffffffffffffffffffffffff1673ffffffffffffffffffffffffffffffffffffffff16815260200190815260200160002060008381526020019081526020016000206000905550505050565b60006001600880549050611ef19190613288565b9050600060096000848152602001908152602001600020549050600060088381548110611f2157611f20612c2e565b5b906000526020600020015490508060088381548110611f4357611f42612c2e565b5b906000526020600020018190555081600960008381526020019081526020016000208190555060096000858152602001908152602001600020600090556008805480611f9257611f916132bc565b5b6001900381819060005260206000200160009055905550505050565b6000611fb983610954565b905081600660008573ffffffffffffffffffffffffffffffffffffffff1673ffffffffffffffffffffffffffffffffffffffff168152602001908152602001600020600083815260200190815260200160002081905550806007600084815260200190815260200160002081905550505050565b5080546120399061275d565b6000825580601f1061204b575061206a565b601f016020900490600052602060002090810190612069919061206d565b5b50565b5b8082111561208657600081600090555060010161206e565b5090565b6000604051905090565b600080fd5b600080fd5b60007fffffffff0000000000000000000000000000000000000000000000000000000082169050919050565b6120d38161209e565b81146120de57600080fd5b50565b6000813590506120f0816120ca565b92915050565b60006020828403121561210c5761210b612094565b5b600061211a848285016120e1565b91505092915050565b60008115159050919050565b61213881612123565b82525050565b6000602082019050612153600083018461212f565b92915050565b600081519050919050565b600082825260208201905092915050565b60005b83811015612193578082015181840152602081019050612178565b60008484015250505050565b6000601f19601f8301169050919050565b60006121bb82612159565b6121c58185612164565b93506121d5818560208601612175565b6121de8161219f565b840191505092915050565b6000602082019050818103600083015261220381846121b0565b905092915050565b6000819050919050565b61221e8161220b565b811461222957600080fd5b50565b60008135905061223b81612215565b92915050565b60006020828403121561225757612256612094565b5b60006122658482850161222c565b91505092915050565b600073ffffffffffffffffffffffffffffffffffffffff82169050919050565b60006122998261226e565b9050919050565b6122a98161228e565b82525050565b60006020820190506122c460008301846122a0565b92915050565b6122d38161228e565b81146122de57600080fd5b50565b6000813590506122f0816122ca565b92915050565b6000806040838503121561230d5761230c612094565b5b600061231b858286016122e1565b925050602061232c8582860161222c565b9150509250929050565b61233f8161220b565b82525050565b600060208201905061235a6000830184612336565b92915050565b600080fd5b600080fd5b7f4e487b7100000000000000000000000000000000000000000000000000000000600052604160045260246000fd5b6123a28261219f565b810181811067ffffffffffffffff821117156123c1576123c061236a565b5b80604052505050565b60006123d461208a565b90506123e08282612399565b919050565b600067ffffffffffffffff821115612400576123ff61236a565b5b6124098261219f565b9050602081019050919050565b82818337600083830152505050565b6000612438612433846123e5565b6123ca565b90508281526020810184848401111561245457612453612365565b5b61245f848285612416565b509392505050565b600082601f83011261247c5761247b612360565b5b813561248c848260208601612425565b91505092915050565b6000602082840312156124ab576124aa612094565b5b600082013567ffffffffffffffff8111156124c9576124c8612099565b5b6124d584828501612467565b91505092915050565b6000806000606084860312156124f7576124f6612094565b5b6000612505868287016122e1565b9350506020612516868287016122e1565b92505060406125278682870161222c565b9150509250925092565b60006020828403121561254757612546612094565b5b6000612555848285016122e1565b91505092915050565b61256781612123565b811461257257600080fd5b50565b6000813590506125848161255e565b92915050565b600080604083850312156125a1576125a0612094565b5b60006125af858286016122e1565b92505060206125c085828601612575565b9150509250929050565b600067ffffffffffffffff8211156125e5576125e461236a565b5b6125ee8261219f565b9050602081019050919050565b600061260e612609846125ca565b6123ca565b90508281526020810184848401111561262a57612629612365565b5b612635848285612416565b509392505050565b600082601f83011261265257612651612360565b5b81356126628482602086016125fb565b91505092915050565b6000806000806080858703121561268557612684612094565b5b6000612693878288016122e1565b94505060206126a4878288016122e1565b93505060406126b58782880161222c565b925050606085013567ffffffffffffffff8111156126d6576126d5612099565b5b6126e28782880161263d565b91505092959194509250565b6000806040838503121561270557612704612094565b5b6000612713858286016122e1565b9250506020612724858286016122e1565b9150509250929050565b7f4e487b7100000000000000000000000000000000000000000000000000000000600052602260045260246000fd5b6000600282049050600182168061277557607f821691505b6020821081036127885761278761272e565b5b50919050565b7f536f727279207468697320536f756c626f756e6420546f6b656e000000000000600082015250565b60006127c4601a83612164565b91506127cf8261278e565b602082019050919050565b600060208201905081810360008301526127f3816127b7565b9050919050565b60008190508160005260206000209050919050565b60006020601f8301049050919050565b600082821b905092915050565b60006008830261285c7fffffffffffffffffffffffffffffffffffffffffffffffffffffffffffffffff8261281f565b612866868361281f565b95508019841693508086168417925050509392505050565b6000819050919050565b60006128a361289e6128998461220b565b61287e565b61220b565b9050919050565b6000819050919050565b6128bd83612888565b6128d16128c9826128aa565b84845461282c565b825550505050565b600090565b6128e66128d9565b6128f18184846128b4565b505050565b5b818110156129155761290a6000826128de565b6001810190506128f7565b5050565b601f82111561295a5761292b816127fa565b6129348461280f565b81016020851015612943578190505b61295761294f8561280f565b8301826128f6565b50505b505050565b600082821c905092915050565b600061297d6000198460080261295f565b1980831691505092915050565b6000612996838361296c565b9150826002028217905092915050565b6129af82612159565b67ffffffffffffffff8111156129c8576129c761236a565b5b6129d2825461275d565b6129dd828285612919565b600060209050601f831160018114612a1057600084156129fe578287015190505b612a08858261298a565b865550612a70565b601f198416612a1e866127fa565b60005b82811015612a4657848901518255600182019150602085019450602081019050612a21565b86831015612a635784890151612a5f601f89168261296c565b8355505b6001600288020188555050505b505050505050565b7f455243373231456e756d657261626c653a206f776e657220696e646578206f7560008201527f74206f6620626f756e6473000000000000000000000000000000000000000000602082015250565b6000612ad4602b83612164565b9150612adf82612a78565b604082019050919050565b60006020820190508181036000830152612b0381612ac7565b9050919050565b7f536f72727920796f7520617265206e6569746865722074686520746f6b656e2060008201527f6f776e6572206e6f7220636f6e7472616374206f776e65720000000000000000602082015250565b6000612b66603883612164565b9150612b7182612b0a565b604082019050919050565b60006020820190508181036000830152612b9581612b59565b9050919050565b7f455243373231456e756d657261626c653a20676c6f62616c20696e646578206f60008201527f7574206f6620626f756e64730000000000000000000000000000000000000000602082015250565b6000612bf8602c83612164565b9150612c0382612b9c565b604082019050919050565b60006020820190508181036000830152612c2781612beb565b9050919050565b7f4e487b7100000000000000000000000000000000000000000000000000000000600052603260045260246000fd5b7f4552433732313a20696e76616c696420746f6b656e2049440000000000000000600082015250565b6000612c93601883612164565b9150612c9e82612c5d565b602082019050919050565b60006020820190508181036000830152612cc281612c86565b9050919050565b7f4552433732313a2061646472657373207a65726f206973206e6f74206120766160008201527f6c6964206f776e65720000000000000000000000000000000000000000000000602082015250565b6000612d25602983612164565b9150612d3082612cc9565b604082019050919050565b60006020820190508181036000830152612d5481612d18565b9050919050565b7f4f776e61626c653a206e6577206f776e657220697320746865207a65726f206160008201527f6464726573730000000000000000000000000000000000000000000000000000602082015250565b6000612db7602683612164565b9150612dc282612d5b565b604082019050919050565b60006020820190508181036000830152612de681612daa565b9050919050565b7f4f776e61626c653a2063616c6c6572206973206e6f7420746865206f776e6572600082015250565b6000612e23602083612164565b9150612e2e82612ded565b602082019050919050565b60006020820190508181036000830152612e5281612e16565b9050919050565b7f45524337323155524953746f726167653a2055524920736574206f66206e6f6e60008201527f6578697374656e7420746f6b656e000000000000000000000000000000000000602082015250565b6000612eb5602e83612164565b9150612ec082612e59565b604082019050919050565b60006020820190508181036000830152612ee481612ea8565b9050919050565b600081905092915050565b6000612f0182612159565b612f0b8185612eeb565b9350612f1b818560208601612175565b80840191505092915050565b6000612f338285612ef6565b9150612f3f8284612ef6565b91508190509392505050565b7f4552433732313a207472616e7366657220746f206e6f6e20455243373231526560008201527f63656976657220696d706c656d656e7465720000000000000000000000000000602082015250565b6000612fa7603283612164565b9150612fb282612f4b565b604082019050919050565b60006020820190508181036000830152612fd681612f9a565b9050919050565b7f4552433732313a206d696e7420746f20746865207a65726f2061646472657373600082015250565b6000613013602083612164565b915061301e82612fdd565b602082019050919050565b6000602082019050818103600083015261304281613006565b9050919050565b7f4552433732313a20746f6b656e20616c7265616479206d696e74656400000000600082015250565b600061307f601c83612164565b915061308a82613049565b602082019050919050565b600060208201905081810360008301526130ae81613072565b9050919050565b600081519050919050565b600082825260208201905092915050565b60006130dc826130b5565b6130e681856130c0565b93506130f6818560208601612175565b6130ff8161219f565b840191505092915050565b600060808201905061311f60008301876122a0565b61312c60208301866122a0565b6131396040830185612336565b818103606083015261314b81846130d1565b905095945050505050565b600081519050613165816120ca565b92915050565b60006020828403121561318157613180612094565b5b600061318f84828501613156565b91505092915050565b7f4e487b7100000000000000000000000000000000000000000000000000000000600052601260045260246000fd5b7f455243373231456e756d657261626c653a20636f6e736563757469766520747260008201527f616e7366657273206e6f7420737570706f727465640000000000000000000000602082015250565b6000613223603583612164565b915061322e826131c7565b604082019050919050565b6000602082019050818103600083015261325281613216565b9050919050565b7f4e487b7100000000000000000000000000000000000000000000000000000000600052601160045260246000fd5b60006132938261220b565b915061329e8361220b565b92508282039050818111156132b6576132b5613259565b5b92915050565b7f4e487b7100000000000000000000000000000000000000000000000000000000600052603160045260246000fdfea2646970667358221220b80dca1ddf6f70b11bdcdefc5366b7f96afcc49ddeb0c6d8a596d9b70e633a8664736f6c6343000813003368747470733a2f2f697066732e696f2f697066732f516d584e65464b6d633744463648706778637757383546636b355241356159355a56674e75666e61617970443750",
  "linkReferences": {},
  "deployedLinkReferences": {}
}