{
  "_format": "hh-sol-artifact-1",
  "contractName": "GreenSwitchSoulboundToken",
  "sourceName": "contracts/GreenSwitchSoulboundToken.sol",
  "abi": [
    {
      "inputs": [],
      "stateMutability": "nonpayable",
      "type": "constructor"
    },
    {
      "anonymous": false,
      "inputs": [
        {
          "indexed": true,
          "internalType": "address",
          "name": "owner",
          "type": "address"
        },
        {
          "indexed": true,
          "internalType": "address",
          "name": "approved",
          "type": "address"
        },
        {
          "indexed": true,
          "internalType": "uint256",
          "name": "tokenId",
          "type": "uint256"
        }
      ],
      "name": "Approval",
      "type": "event"
    },
    {
      "anonymous": false,
      "inputs": [
        {
          "indexed": true,
          "internalType": "address",
          "name": "owner",
          "type": "address"
        },
        {
          "indexed": true,
          "internalType": "address",
          "name": "operator",
          "type": "address"
        },
        {
          "indexed": false,
          "internalType": "bool",
          "name": "approved",
          "type": "bool"
        }
      ],
      "name": "ApprovalForAll",
      "type": "event"
    },
    {
      "anonymous": false,
      "inputs": [
        {
          "indexed": false,
          "internalType": "uint256",
          "name": "_fromTokenId",
          "type": "uint256"
        },
        {
          "indexed": false,
          "internalType": "uint256",
          "name": "_toTokenId",
          "type": "uint256"
        }
      ],
      "name": "BatchMetadataUpdate",
      "type": "event"
    },
    {
      "anonymous": false,
      "inputs": [
        {
          "indexed": false,
          "internalType": "uint256",
          "name": "_tokenId",
          "type": "uint256"
        }
      ],
      "name": "MetadataUpdate",
      "type": "event"
    },
    {
      "anonymous": false,
      "inputs": [
        {
          "indexed": true,
          "internalType": "address",
          "name": "previousOwner",
          "type": "address"
        },
        {
          "indexed": true,
          "internalType": "address",
          "name": "newOwner",
          "type": "address"
        }
      ],
      "name": "OwnershipTransferred",
      "type": "event"
    },
    {
      "anonymous": false,
      "inputs": [
        {
          "indexed": true,
          "internalType": "address",
          "name": "from",
          "type": "address"
        },
        {
          "indexed": true,
          "internalType": "address",
          "name": "to",
          "type": "address"
        },
        {
          "indexed": true,
          "internalType": "uint256",
          "name": "tokenId",
          "type": "uint256"
        }
      ],
      "name": "Transfer",
      "type": "event"
    },
    {
      "inputs": [
        {
          "internalType": "address",
          "name": "to",
          "type": "address"
        },
        {
          "internalType": "uint256",
          "name": "tokenId",
          "type": "uint256"
        }
      ],
      "name": "approve",
      "outputs": [],
      "stateMutability": "nonpayable",
      "type": "function"
    },
    {
      "inputs": [
        {
          "internalType": "address",
          "name": "owner",
          "type": "address"
        }
      ],
      "name": "balanceOf",
      "outputs": [
        {
          "internalType": "uint256",
          "name": "",
          "type": "uint256"
        }
      ],
      "stateMutability": "view",
      "type": "function"
    },
    {
      "inputs": [
        {
          "internalType": "uint256",
          "name": "tokenId",
          "type": "uint256"
        }
      ],
      "name": "burn",
      "outputs": [],
      "stateMutability": "nonpayable",
      "type": "function"
    },
    {
      "inputs": [
        {
          "internalType": "string",
          "name": "_url",
          "type": "string"
        }
      ],
      "name": "changeSBTImage",
      "outputs": [],
      "stateMutability": "nonpayable",
      "type": "function"
    },
    {
      "inputs": [
        {
          "internalType": "uint256",
          "name": "tokenId",
          "type": "uint256"
        }
      ],
      "name": "getApproved",
      "outputs": [
        {
          "internalType": "address",
          "name": "",
          "type": "address"
        }
      ],
      "stateMutability": "view",
      "type": "function"
    },
    {
      "inputs": [
        {
          "internalType": "address",
          "name": "",
          "type": "address"
        }
      ],
      "name": "gettokenIdByAddress",
      "outputs": [
        {
          "internalType": "uint256",
          "name": "",
          "type": "uint256"
        }
      ],
      "stateMutability": "view",
      "type": "function"
    },
    {
      "inputs": [
        {
          "internalType": "address",
          "name": "owner",
          "type": "address"
        },
        {
          "internalType": "address",
          "name": "operator",
          "type": "address"
        }
      ],
      "name": "isApprovedForAll",
      "outputs": [
        {
          "internalType": "bool",
          "name": "",
          "type": "bool"
        }
      ],
      "stateMutability": "view",
      "type": "function"
    },
    {
      "inputs": [],
      "name": "name",
      "outputs": [
        {
          "internalType": "string",
          "name": "",
          "type": "string"
        }
      ],
      "stateMutability": "view",
      "type": "function"
    },
    {
      "inputs": [],
      "name": "owner",
      "outputs": [
        {
          "internalType": "address",
          "name": "",
          "type": "address"
        }
      ],
      "stateMutability": "view",
      "type": "function"
    },
    {
      "inputs": [
        {
          "internalType": "uint256",
          "name": "tokenId",
          "type": "uint256"
        }
      ],
      "name": "ownerOf",
      "outputs": [
        {
          "internalType": "address",
          "name": "",
          "type": "address"
        }
      ],
      "stateMutability": "view",
      "type": "function"
    },
    {
      "inputs": [],
      "name": "renounceOwnership",
      "outputs": [],
      "stateMutability": "nonpayable",
      "type": "function"
    },
    {
      "inputs": [
        {
          "internalType": "address",
          "name": "to",
          "type": "address"
        }
      ],
      "name": "safeMint",
      "outputs": [],
      "stateMutability": "nonpayable",
      "type": "function"
    },
    {
      "inputs": [
        {
          "internalType": "address",
          "name": "from",
          "type": "address"
        },
        {
          "internalType": "address",
          "name": "to",
          "type": "address"
        },
        {
          "internalType": "uint256",
          "name": "tokenId",
          "type": "uint256"
        }
      ],
      "name": "safeTransferFrom",
      "outputs": [],
      "stateMutability": "nonpayable",
      "type": "function"
    },
    {
      "inputs": [
        {
          "internalType": "address",
          "name": "from",
          "type": "address"
        },
        {
          "internalType": "address",
          "name": "to",
          "type": "address"
        },
        {
          "internalType": "uint256",
          "name": "tokenId",
          "type": "uint256"
        },
        {
          "internalType": "bytes",
          "name": "data",
          "type": "bytes"
        }
      ],
      "name": "safeTransferFrom",
      "outputs": [],
      "stateMutability": "nonpayable",
      "type": "function"
    },
    {
      "inputs": [
        {
          "internalType": "address",
          "name": "operator",
          "type": "address"
        },
        {
          "internalType": "bool",
          "name": "approved",
          "type": "bool"
        }
      ],
      "name": "setApprovalForAll",
      "outputs": [],
      "stateMutability": "nonpayable",
      "type": "function"
    },
    {
      "inputs": [
        {
          "internalType": "bytes4",
          "name": "interfaceId",
          "type": "bytes4"
        }
      ],
      "name": "supportsInterface",
      "outputs": [
        {
          "internalType": "bool",
          "name": "",
          "type": "bool"
        }
      ],
      "stateMutability": "view",
      "type": "function"
    },
    {
      "inputs": [],
      "name": "symbol",
      "outputs": [
        {
          "internalType": "string",
          "name": "",
          "type": "string"
        }
      ],
      "stateMutability": "view",
      "type": "function"
    },
    {
      "inputs": [
        {
          "internalType": "uint256",
          "name": "index",
          "type": "uint256"
        }
      ],
      "name": "tokenByIndex",
      "outputs": [
        {
          "internalType": "uint256",
          "name": "",
          "type": "uint256"
        }
      ],
      "stateMutability": "view",
      "type": "function"
    },
    {
      "inputs": [
        {
          "internalType": "address",
          "name": "owner",
          "type": "address"
        },
        {
          "internalType": "uint256",
          "name": "index",
          "type": "uint256"
        }
      ],
      "name": "tokenOfOwnerByIndex",
      "outputs": [
        {
          "internalType": "uint256",
          "name": "",
          "type": "uint256"
        }
      ],
      "stateMutability": "view",
      "type": "function"
    },
    {
      "inputs": [
        {
          "internalType": "uint256",
          "name": "tokenId",
          "type": "uint256"
        }
      ],
      "name": "tokenURI",
      "outputs": [
        {
          "internalType": "string",
          "name": "",
          "type": "string"
        }
      ],
      "stateMutability": "view",
      "type": "function"
    },
    {
      "inputs": [],
      "name": "totalSupply",
      "outputs": [
        {
          "internalType": "uint256",
          "name": "",
          "type": "uint256"
        }
      ],
      "stateMutability": "view",
      "type": "function"
    },
    {
      "inputs": [
        {
          "internalType": "address",
          "name": "from",
          "type": "address"
        },
        {
          "internalType": "address",
          "name": "to",
          "type": "address"
        },
        {
          "internalType": "uint256",
          "name": "tokenId",
          "type": "uint256"
        }
      ],
      "name": "transferFrom",
      "outputs": [],
      "stateMutability": "nonpayable",
      "type": "function"
    },
    {
      "inputs": [
        {
          "internalType": "address",
          "name": "newOwner",
          "type": "address"
        }
      ],
      "name": "transferOwnership",
      "outputs": [],
      "stateMutability": "nonpayable",
      "type": "function"
    },
    {
      "inputs": [],
      "name": "uri",
      "outputs": [
        {
          "internalType": "string",
          "name": "",
          "type": "string"
        }
      ],
      "stateMutability": "view",
      "type": "function"
    }
  ],
  "bytecode": "0x608060405260405180608001604052806043815260200162003a1f60439139600c90816200002e91906200043d565b503480156200003c57600080fd5b506040518060400160405280601b81526020017f477265656e53776974636820536f756c626f756e6420546f6b656e00000000008152506040518060400160405280600381526020017f47535400000000000000000000000000000000000000000000000000000000008152508160009081620000ba91906200043d565b508060019081620000cc91906200043d565b505050620000ef620000e3620000f560201b60201c565b620000fd60201b60201c565b62000524565b600033905090565b6000600b60009054906101000a900473ffffffffffffffffffffffffffffffffffffffff16905081600b60006101000a81548173ffffffffffffffffffffffffffffffffffffffff021916908373ffffffffffffffffffffffffffffffffffffffff1602179055508173ffffffffffffffffffffffffffffffffffffffff168173ffffffffffffffffffffffffffffffffffffffff167f8be0079c531659141344cd1fd0a4f28419497f9722a3daafe3b4186f6b6457e060405160405180910390a35050565b600081519050919050565b7f4e487b7100000000000000000000000000000000000000000000000000000000600052604160045260246000fd5b7f4e487b7100000000000000000000000000000000000000000000000000000000600052602260045260246000fd5b600060028204905060018216806200024557607f821691505b6020821081036200025b576200025a620001fd565b5b50919050565b60008190508160005260206000209050919050565b60006020601f8301049050919050565b600082821b905092915050565b600060088302620002c57fffffffffffffffffffffffffffffffffffffffffffffffffffffffffffffffff8262000286565b620002d1868362000286565b95508019841693508086168417925050509392505050565b6000819050919050565b6000819050919050565b60006200031e620003186200031284620002e9565b620002f3565b620002e9565b9050919050565b6000819050919050565b6200033a83620002fd565b62000352620003498262000325565b84845462000293565b825550505050565b600090565b620003696200035a565b620003768184846200032f565b505050565b5b818110156200039e57620003926000826200035f565b6001810190506200037c565b5050565b601f821115620003ed57620003b78162000261565b620003c28462000276565b81016020851015620003d2578190505b620003ea620003e18562000276565b8301826200037b565b50505b505050565b600082821c905092915050565b60006200041260001984600802620003f2565b1980831691505092915050565b60006200042d8383620003ff565b9150826002028217905092915050565b6200044882620001c3565b67ffffffffffffffff811115620004645762000463620001ce565b5b6200047082546200022c565b6200047d828285620003a2565b600060209050601f831160018114620004b55760008415620004a0578287015190505b620004ac85826200041f565b8655506200051c565b601f198416620004c58662000261565b60005b82811015620004ef57848901518255600182019150602085019450602081019050620004c8565b868310156200050f57848901516200050b601f891682620003ff565b8355505b6001600288020188555050505b505050505050565b6134eb80620005346000396000f3fe608060405234801561001057600080fd5b50600436106101585760003560e01c80636352211e116100c3578063a22cb4651161007c578063a22cb465146103d7578063b88d4fde146103f3578063c87b56dd1461040f578063e985e9c51461043f578063eac989f81461046f578063f2fde38b1461048d57610158565b80636352211e146103015780636a79d8e81461033157806370a0823114610361578063715018a6146103915780638da5cb5b1461039b57806395d89b41146103b957610158565b806323b872dd1161011557806323b872dd146102315780632f745c591461024d57806340d097c31461027d57806342842e0e1461029957806342966c68146102b55780634f6ccce7146102d157610158565b806301ffc9a71461015d57806306fdde031461018d578063081812fc146101ab578063095ea7b3146101db57806318160ddd146101f75780631b88432f14610215575b600080fd5b61017760048036038101906101729190612254565b6104a9565b604051610184919061229c565b60405180910390f35b6101956104bb565b6040516101a29190612347565b60405180910390f35b6101c560048036038101906101c0919061239f565b61054d565b6040516101d2919061240d565b60405180910390f35b6101f560048036038101906101f09190612454565b610593565b005b6101ff6105ce565b60405161020c91906124a3565b60405180910390f35b61022f600480360381019061022a91906125f3565b6105db565b005b61024b6004803603810190610246919061263c565b6105f6565b005b61026760048036038101906102629190612454565b610631565b60405161027491906124a3565b60405180910390f35b6102976004803603810190610292919061268f565b6106d6565b005b6102b360048036038101906102ae919061263c565b61085e565b005b6102cf60048036038101906102ca919061239f565b610899565b005b6102eb60048036038101906102e6919061239f565b6109a3565b6040516102f891906124a3565b60405180910390f35b61031b6004803603810190610316919061239f565b610a14565b604051610328919061240d565b60405180910390f35b61034b6004803603810190610346919061268f565b610a9a565b60405161035891906124a3565b60405180910390f35b61037b6004803603810190610376919061268f565b610ab2565b60405161038891906124a3565b60405180910390f35b610399610b69565b005b6103a3610b7d565b6040516103b0919061240d565b60405180910390f35b6103c1610ba7565b6040516103ce9190612347565b60405180910390f35b6103f160048036038101906103ec91906126e8565b610c39565b005b61040d600480360381019061040891906127c9565b610c74565b005b6104296004803603810190610424919061239f565b610caf565b6040516104369190612347565b60405180910390f35b6104596004803603810190610454919061284c565b610cc1565b604051610466919061229c565b60405180910390f35b610477610d55565b6040516104849190612347565b60405180910390f35b6104a760048036038101906104a2919061268f565b610de3565b005b60006104b482610e66565b9050919050565b6060600080546104ca906128bb565b80601f01602080910402602001604051908101604052809291908181526020018280546104f6906128bb565b80156105435780601f1061051857610100808354040283529160200191610543565b820191906000526020600020905b81548152906001019060200180831161052657829003601f168201915b5050505050905090565b600061055882610ec7565b6004600083815260200190815260200160002060009054906101000a900473ffffffffffffffffffffffffffffffffffffffff169050919050565b6040517f08c379a00000000000000000000000000000000000000000000000000000000081526004016105c590612938565b60405180910390fd5b6000600880549050905090565b6105e3610f12565b80600c90816105f29190612b04565b5050565b6040517f08c379a000000000000000000000000000000000000000000000000000000000815260040161062890612938565b60405180910390fd5b600061063c83610ab2565b821061067d576040517f08c379a000000000000000000000000000000000000000000000000000000000815260040161067490612c48565b60405180910390fd5b600660008473ffffffffffffffffffffffffffffffffffffffff1673ffffffffffffffffffffffffffffffffffffffff168152602001908152602001600020600083815260200190815260200160002054905092915050565b6106de610f12565b6000600e60008373ffffffffffffffffffffffffffffffffffffffff1673ffffffffffffffffffffffffffffffffffffffff1681526020019081526020016000205414610760576040517f08c379a000000000000000000000000000000000000000000000000000000000815260040161075790612cb4565b60405180910390fd5b61076a600d610f90565b6000610776600d610fa6565b90506107828282610fb4565b61081681600c8054610793906128bb565b80601f01602080910402602001604051908101604052809291908181526020018280546107bf906128bb565b801561080c5780601f106107e15761010080835404028352916020019161080c565b820191906000526020600020905b8154815290600101906020018083116107ef57829003601f168201915b5050505050610fd2565b80600e60008473ffffffffffffffffffffffffffffffffffffffff1673ffffffffffffffffffffffffffffffffffffffff168152602001908152602001600020819055505050565b6040517f08c379a000000000000000000000000000000000000000000000000000000000815260040161089090612938565b60405180910390fd5b60006108a482610a14565b90506000600e60008373ffffffffffffffffffffffffffffffffffffffff1673ffffffffffffffffffffffffffffffffffffffff168152602001908152602001600020819055508073ffffffffffffffffffffffffffffffffffffffff163373ffffffffffffffffffffffffffffffffffffffff1614806109575750610928610b7d565b73ffffffffffffffffffffffffffffffffffffffff163373ffffffffffffffffffffffffffffffffffffffff16145b610996576040517f08c379a000000000000000000000000000000000000000000000000000000000815260040161098d90612d46565b60405180910390fd5b61099f82611076565b5050565b60006109ad6105ce565b82106109ee576040517f08c379a00000000000000000000000000000000000000000000000000000000081526004016109e590612dd8565b60405180910390fd5b60088281548110610a0257610a01612df8565b5b90600052602060002001549050919050565b600080610a2083611082565b9050600073ffffffffffffffffffffffffffffffffffffffff168173ffffffffffffffffffffffffffffffffffffffff1603610a91576040517f08c379a0000000000000000000000000000000000000000000000000000000008152600401610a8890612e73565b60405180910390fd5b80915050919050565b600e6020528060005260406000206000915090505481565b60008073ffffffffffffffffffffffffffffffffffffffff168273ffffffffffffffffffffffffffffffffffffffff1603610b22576040517f08c379a0000000000000000000000000000000000000000000000000000000008152600401610b1990612f05565b60405180910390fd5b600360008373ffffffffffffffffffffffffffffffffffffffff1673ffffffffffffffffffffffffffffffffffffffff168152602001908152602001600020549050919050565b610b71610f12565b610b7b60006110bf565b565b6000600b60009054906101000a900473ffffffffffffffffffffffffffffffffffffffff16905090565b606060018054610bb6906128bb565b80601f0160208091040260200160405190810160405280929190818152602001828054610be2906128bb565b8015610c2f5780601f10610c0457610100808354040283529160200191610c2f565b820191906000526020600020905b815481529060010190602001808311610c1257829003601f168201915b5050505050905090565b6040517f08c379a0000000000000000000000000000000000000000000000000000000008152600401610c6b90612938565b60405180910390fd5b6040517f08c379a0000000000000000000000000000000000000000000000000000000008152600401610ca690612938565b60405180910390fd5b6060610cba82611185565b9050919050565b6000600560008473ffffffffffffffffffffffffffffffffffffffff1673ffffffffffffffffffffffffffffffffffffffff16815260200190815260200160002060008373ffffffffffffffffffffffffffffffffffffffff1673ffffffffffffffffffffffffffffffffffffffff16815260200190815260200160002060009054906101000a900460ff16905092915050565b600c8054610d62906128bb565b80601f0160208091040260200160405190810160405280929190818152602001828054610d8e906128bb565b8015610ddb5780601f10610db057610100808354040283529160200191610ddb565b820191906000526020600020905b815481529060010190602001808311610dbe57829003601f168201915b505050505081565b610deb610f12565b600073ffffffffffffffffffffffffffffffffffffffff168173ffffffffffffffffffffffffffffffffffffffff1603610e5a576040517f08c379a0000000000000000000000000000000000000000000000000000000008152600401610e5190612f97565b60405180910390fd5b610e63816110bf565b50565b6000634906490660e01b7bffffffffffffffffffffffffffffffffffffffffffffffffffffffff1916827bffffffffffffffffffffffffffffffffffffffffffffffffffffffff19161480610ec05750610ebf82611297565b5b9050919050565b610ed081611311565b610f0f576040517f08c379a0000000000000000000000000000000000000000000000000000000008152600401610f0690612e73565b60405180910390fd5b50565b610f1a611352565b73ffffffffffffffffffffffffffffffffffffffff16610f38610b7d565b73ffffffffffffffffffffffffffffffffffffffff1614610f8e576040517f08c379a0000000000000000000000000000000000000000000000000000000008152600401610f8590613003565b60405180910390fd5b565b6001816000016000828254019250508190555050565b600081600001549050919050565b610fce82826040518060200160405280600081525061135a565b5050565b610fdb82611311565b61101a576040517f08c379a000000000000000000000000000000000000000000000000000000000815260040161101190613095565b60405180910390fd5b80600a6000848152602001908152602001600020908161103a9190612b04565b507ff8e1a15aba9398e019f0b49df1a4fde98ee17ae345cb5f6b5e2c27f5033e8ce78260405161106a91906124a3565b60405180910390a15050565b61107f816113b5565b50565b60006002600083815260200190815260200160002060009054906101000a900473ffffffffffffffffffffffffffffffffffffffff169050919050565b6000600b60009054906101000a900473ffffffffffffffffffffffffffffffffffffffff16905081600b60006101000a81548173ffffffffffffffffffffffffffffffffffffffff021916908373ffffffffffffffffffffffffffffffffffffffff1602179055508173ffffffffffffffffffffffffffffffffffffffff168173ffffffffffffffffffffffffffffffffffffffff167f8be0079c531659141344cd1fd0a4f28419497f9722a3daafe3b4186f6b6457e060405160405180910390a35050565b606061119082610ec7565b6000600a600084815260200190815260200160002080546111b0906128bb565b80601f01602080910402602001604051908101604052809291908181526020018280546111dc906128bb565b80156112295780601f106111fe57610100808354040283529160200191611229565b820191906000526020600020905b81548152906001019060200180831161120c57829003601f168201915b50505050509050600061123a611408565b9050600081510361124f578192505050611292565b60008251111561128457808260405160200161126c9291906130f1565b60405160208183030381529060405292505050611292565b61128d8461141f565b925050505b919050565b60007f780e9d63000000000000000000000000000000000000000000000000000000007bffffffffffffffffffffffffffffffffffffffffffffffffffffffff1916827bffffffffffffffffffffffffffffffffffffffffffffffffffffffff1916148061130a575061130982611487565b5b9050919050565b60008073ffffffffffffffffffffffffffffffffffffffff1661133383611082565b73ffffffffffffffffffffffffffffffffffffffff1614159050919050565b600033905090565b6113648383611569565b6113716000848484611786565b6113b0576040517f08c379a00000000000000000000000000000000000000000000000000000000081526004016113a790613187565b60405180910390fd5b505050565b6113be8161190d565b6000600a600083815260200190815260200160002080546113de906128bb565b90501461140557600a60008281526020019081526020016000206000611404919061218b565b5b50565b606060405180602001604052806000815250905090565b606061142a82610ec7565b6000611434611408565b90506000815111611454576040518060200160405280600081525061147f565b8061145e84611a5b565b60405160200161146f9291906130f1565b6040516020818303038152906040525b915050919050565b60007f80ac58cd000000000000000000000000000000000000000000000000000000007bffffffffffffffffffffffffffffffffffffffffffffffffffffffff1916827bffffffffffffffffffffffffffffffffffffffffffffffffffffffff1916148061155257507f5b5e139f000000000000000000000000000000000000000000000000000000007bffffffffffffffffffffffffffffffffffffffffffffffffffffffff1916827bffffffffffffffffffffffffffffffffffffffffffffffffffffffff1916145b80611562575061156182611b29565b5b9050919050565b600073ffffffffffffffffffffffffffffffffffffffff168273ffffffffffffffffffffffffffffffffffffffff16036115d8576040517f08c379a00000000000000000000000000000000000000000000000000000000081526004016115cf906131f3565b60405180910390fd5b6115e181611311565b15611621576040517f08c379a00000000000000000000000000000000000000000000000000000000081526004016116189061325f565b60405180910390fd5b61162f600083836001611b93565b61163881611311565b15611678576040517f08c379a000000000000000000000000000000000000000000000000000000000815260040161166f9061325f565b60405180910390fd5b6001600360008473ffffffffffffffffffffffffffffffffffffffff1673ffffffffffffffffffffffffffffffffffffffff16815260200190815260200160002060008282540192505081905550816002600083815260200190815260200160002060006101000a81548173ffffffffffffffffffffffffffffffffffffffff021916908373ffffffffffffffffffffffffffffffffffffffff160217905550808273ffffffffffffffffffffffffffffffffffffffff16600073ffffffffffffffffffffffffffffffffffffffff167fddf252ad1be2c89b69c2b068fc378daa952ba7f163c4a11628f55a4df523b3ef60405160405180910390a4611782600083836001611ba5565b5050565b60006117a78473ffffffffffffffffffffffffffffffffffffffff16611bab565b15611900578373ffffffffffffffffffffffffffffffffffffffff1663150b7a026117d0611352565b8786866040518563ffffffff1660e01b81526004016117f294939291906132d4565b6020604051808303816000875af192505050801561182e57506040513d601f19601f8201168201806040525081019061182b9190613335565b60015b6118b0573d806000811461185e576040519150601f19603f3d011682016040523d82523d6000602084013e611863565b606091505b5060008151036118a8576040517f08c379a000000000000000000000000000000000000000000000000000000000815260040161189f90613187565b60405180910390fd5b805181602001fd5b63150b7a0260e01b7bffffffffffffffffffffffffffffffffffffffffffffffffffffffff1916817bffffffffffffffffffffffffffffffffffffffffffffffffffffffff191614915050611905565b600190505b949350505050565b600061191882610a14565b9050611928816000846001611b93565b61193182610a14565b90506004600083815260200190815260200160002060006101000a81549073ffffffffffffffffffffffffffffffffffffffff02191690556001600360008373ffffffffffffffffffffffffffffffffffffffff1673ffffffffffffffffffffffffffffffffffffffff168152602001908152602001600020600082825403925050819055506002600083815260200190815260200160002060006101000a81549073ffffffffffffffffffffffffffffffffffffffff021916905581600073ffffffffffffffffffffffffffffffffffffffff168273ffffffffffffffffffffffffffffffffffffffff167fddf252ad1be2c89b69c2b068fc378daa952ba7f163c4a11628f55a4df523b3ef60405160405180910390a4611a57816000846001611ba5565b5050565b606060006001611a6a84611bce565b01905060008167ffffffffffffffff811115611a8957611a886124c8565b5b6040519080825280601f01601f191660200182016040528015611abb5781602001600182028036833780820191505090505b509050600082602001820190505b600115611b1e578080600190039150507f3031323334353637383961626364656600000000000000000000000000000000600a86061a8153600a8581611b1257611b11613362565b5b04945060008503611ac9575b819350505050919050565b60007f01ffc9a7000000000000000000000000000000000000000000000000000000007bffffffffffffffffffffffffffffffffffffffffffffffffffffffff1916827bffffffffffffffffffffffffffffffffffffffffffffffffffffffff1916149050919050565b611b9f84848484611d21565b50505050565b50505050565b6000808273ffffffffffffffffffffffffffffffffffffffff163b119050919050565b600080600090507a184f03e93ff9f4daa797ed6e38ed64bf6a1f0100000000000000008310611c2c577a184f03e93ff9f4daa797ed6e38ed64bf6a1f0100000000000000008381611c2257611c21613362565b5b0492506040810190505b6d04ee2d6d415b85acef81000000008310611c69576d04ee2d6d415b85acef81000000008381611c5f57611c5e613362565b5b0492506020810190505b662386f26fc100008310611c9857662386f26fc100008381611c8e57611c8d613362565b5b0492506010810190505b6305f5e1008310611cc1576305f5e1008381611cb757611cb6613362565b5b0492506008810190505b6127108310611ce6576127108381611cdc57611cdb613362565b5b0492506004810190505b60648310611d095760648381611cff57611cfe613362565b5b0492506002810190505b600a8310611d18576001810190505b80915050919050565b611d2d84848484611e7f565b6001811115611d71576040517f08c379a0000000000000000000000000000000000000000000000000000000008152600401611d6890613403565b60405180910390fd5b6000829050600073ffffffffffffffffffffffffffffffffffffffff168573ffffffffffffffffffffffffffffffffffffffff1603611db857611db381611e85565b611df7565b8373ffffffffffffffffffffffffffffffffffffffff168573ffffffffffffffffffffffffffffffffffffffff1614611df657611df58582611ece565b5b5b600073ffffffffffffffffffffffffffffffffffffffff168473ffffffffffffffffffffffffffffffffffffffff1603611e3957611e348161203b565b611e78565b8473ffffffffffffffffffffffffffffffffffffffff168473ffffffffffffffffffffffffffffffffffffffff1614611e7757611e76848261210c565b5b5b5050505050565b50505050565b6008805490506009600083815260200190815260200160002081905550600881908060018154018082558091505060019003906000526020600020016000909190919091505550565b60006001611edb84610ab2565b611ee59190613452565b9050600060076000848152602001908152602001600020549050818114611fca576000600660008673ffffffffffffffffffffffffffffffffffffffff1673ffffffffffffffffffffffffffffffffffffffff168152602001908152602001600020600084815260200190815260200160002054905080600660008773ffffffffffffffffffffffffffffffffffffffff1673ffffffffffffffffffffffffffffffffffffffff168152602001908152602001600020600084815260200190815260200160002081905550816007600083815260200190815260200160002081905550505b6007600084815260200190815260200160002060009055600660008573ffffffffffffffffffffffffffffffffffffffff1673ffffffffffffffffffffffffffffffffffffffff16815260200190815260200160002060008381526020019081526020016000206000905550505050565b6000600160088054905061204f9190613452565b905060006009600084815260200190815260200160002054905060006008838154811061207f5761207e612df8565b5b9060005260206000200154905080600883815481106120a1576120a0612df8565b5b9060005260206000200181905550816009600083815260200190815260200160002081905550600960008581526020019081526020016000206000905560088054806120f0576120ef613486565b5b6001900381819060005260206000200160009055905550505050565b600061211783610ab2565b905081600660008573ffffffffffffffffffffffffffffffffffffffff1673ffffffffffffffffffffffffffffffffffffffff168152602001908152602001600020600083815260200190815260200160002081905550806007600084815260200190815260200160002081905550505050565b508054612197906128bb565b6000825580601f106121a957506121c8565b601f0160209004906000526020600020908101906121c791906121cb565b5b50565b5b808211156121e45760008160009055506001016121cc565b5090565b6000604051905090565b600080fd5b600080fd5b60007fffffffff0000000000000000000000000000000000000000000000000000000082169050919050565b612231816121fc565b811461223c57600080fd5b50565b60008135905061224e81612228565b92915050565b60006020828403121561226a576122696121f2565b5b60006122788482850161223f565b91505092915050565b60008115159050919050565b61229681612281565b82525050565b60006020820190506122b1600083018461228d565b92915050565b600081519050919050565b600082825260208201905092915050565b60005b838110156122f15780820151818401526020810190506122d6565b60008484015250505050565b6000601f19601f8301169050919050565b6000612319826122b7565b61232381856122c2565b93506123338185602086016122d3565b61233c816122fd565b840191505092915050565b60006020820190508181036000830152612361818461230e565b905092915050565b6000819050919050565b61237c81612369565b811461238757600080fd5b50565b60008135905061239981612373565b92915050565b6000602082840312156123b5576123b46121f2565b5b60006123c38482850161238a565b91505092915050565b600073ffffffffffffffffffffffffffffffffffffffff82169050919050565b60006123f7826123cc565b9050919050565b612407816123ec565b82525050565b600060208201905061242260008301846123fe565b92915050565b612431816123ec565b811461243c57600080fd5b50565b60008135905061244e81612428565b92915050565b6000806040838503121561246b5761246a6121f2565b5b60006124798582860161243f565b925050602061248a8582860161238a565b9150509250929050565b61249d81612369565b82525050565b60006020820190506124b86000830184612494565b92915050565b600080fd5b600080fd5b7f4e487b7100000000000000000000000000000000000000000000000000000000600052604160045260246000fd5b612500826122fd565b810181811067ffffffffffffffff8211171561251f5761251e6124c8565b5b80604052505050565b60006125326121e8565b905061253e82826124f7565b919050565b600067ffffffffffffffff82111561255e5761255d6124c8565b5b612567826122fd565b9050602081019050919050565b82818337600083830152505050565b600061259661259184612543565b612528565b9050828152602081018484840111156125b2576125b16124c3565b5b6125bd848285612574565b509392505050565b600082601f8301126125da576125d96124be565b5b81356125ea848260208601612583565b91505092915050565b600060208284031215612609576126086121f2565b5b600082013567ffffffffffffffff811115612627576126266121f7565b5b612633848285016125c5565b91505092915050565b600080600060608486031215612655576126546121f2565b5b60006126638682870161243f565b93505060206126748682870161243f565b92505060406126858682870161238a565b9150509250925092565b6000602082840312156126a5576126a46121f2565b5b60006126b38482850161243f565b91505092915050565b6126c581612281565b81146126d057600080fd5b50565b6000813590506126e2816126bc565b92915050565b600080604083850312156126ff576126fe6121f2565b5b600061270d8582860161243f565b925050602061271e858286016126d3565b9150509250929050565b600067ffffffffffffffff821115612743576127426124c8565b5b61274c826122fd565b9050602081019050919050565b600061276c61276784612728565b612528565b905082815260208101848484011115612788576127876124c3565b5b612793848285612574565b509392505050565b600082601f8301126127b0576127af6124be565b5b81356127c0848260208601612759565b91505092915050565b600080600080608085870312156127e3576127e26121f2565b5b60006127f18782880161243f565b94505060206128028782880161243f565b93505060406128138782880161238a565b925050606085013567ffffffffffffffff811115612834576128336121f7565b5b6128408782880161279b565b91505092959194509250565b60008060408385031215612863576128626121f2565b5b60006128718582860161243f565b92505060206128828582860161243f565b9150509250929050565b7f4e487b7100000000000000000000000000000000000000000000000000000000600052602260045260246000fd5b600060028204905060018216806128d357607f821691505b6020821081036128e6576128e561288c565b5b50919050565b7f536f727279207468697320536f756c626f756e6420546f6b656e000000000000600082015250565b6000612922601a836122c2565b915061292d826128ec565b602082019050919050565b6000602082019050818103600083015261295181612915565b9050919050565b60008190508160005260206000209050919050565b60006020601f8301049050919050565b600082821b905092915050565b6000600883026129ba7fffffffffffffffffffffffffffffffffffffffffffffffffffffffffffffffff8261297d565b6129c4868361297d565b95508019841693508086168417925050509392505050565b6000819050919050565b6000612a016129fc6129f784612369565b6129dc565b612369565b9050919050565b6000819050919050565b612a1b836129e6565b612a2f612a2782612a08565b84845461298a565b825550505050565b600090565b612a44612a37565b612a4f818484612a12565b505050565b5b81811015612a7357612a68600082612a3c565b600181019050612a55565b5050565b601f821115612ab857612a8981612958565b612a928461296d565b81016020851015612aa1578190505b612ab5612aad8561296d565b830182612a54565b50505b505050565b600082821c905092915050565b6000612adb60001984600802612abd565b1980831691505092915050565b6000612af48383612aca565b9150826002028217905092915050565b612b0d826122b7565b67ffffffffffffffff811115612b2657612b256124c8565b5b612b3082546128bb565b612b3b828285612a77565b600060209050601f831160018114612b6e5760008415612b5c578287015190505b612b668582612ae8565b865550612bce565b601f198416612b7c86612958565b60005b82811015612ba457848901518255600182019150602085019450602081019050612b7f565b86831015612bc15784890151612bbd601f891682612aca565b8355505b6001600288020188555050505b505050505050565b7f455243373231456e756d657261626c653a206f776e657220696e646578206f7560008201527f74206f6620626f756e6473000000000000000000000000000000000000000000602082015250565b6000612c32602b836122c2565b9150612c3d82612bd6565b604082019050919050565b60006020820190508181036000830152612c6181612c25565b9050919050565b7f416c726561647920486176652053425400000000000000000000000000000000600082015250565b6000612c9e6010836122c2565b9150612ca982612c68565b602082019050919050565b60006020820190508181036000830152612ccd81612c91565b9050919050565b7f536f72727920796f7520617265206e6569746865722074686520746f6b656e2060008201527f6f776e6572206e6f7220636f6e7472616374206f776e65720000000000000000602082015250565b6000612d306038836122c2565b9150612d3b82612cd4565b604082019050919050565b60006020820190508181036000830152612d5f81612d23565b9050919050565b7f455243373231456e756d657261626c653a20676c6f62616c20696e646578206f60008201527f7574206f6620626f756e64730000000000000000000000000000000000000000602082015250565b6000612dc2602c836122c2565b9150612dcd82612d66565b604082019050919050565b60006020820190508181036000830152612df181612db5565b9050919050565b7f4e487b7100000000000000000000000000000000000000000000000000000000600052603260045260246000fd5b7f4552433732313a20696e76616c696420746f6b656e2049440000000000000000600082015250565b6000612e5d6018836122c2565b9150612e6882612e27565b602082019050919050565b60006020820190508181036000830152612e8c81612e50565b9050919050565b7f4552433732313a2061646472657373207a65726f206973206e6f74206120766160008201527f6c6964206f776e65720000000000000000000000000000000000000000000000602082015250565b6000612eef6029836122c2565b9150612efa82612e93565b604082019050919050565b60006020820190508181036000830152612f1e81612ee2565b9050919050565b7f4f776e61626c653a206e6577206f776e657220697320746865207a65726f206160008201527f6464726573730000000000000000000000000000000000000000000000000000602082015250565b6000612f816026836122c2565b9150612f8c82612f25565b604082019050919050565b60006020820190508181036000830152612fb081612f74565b9050919050565b7f4f776e61626c653a2063616c6c6572206973206e6f7420746865206f776e6572600082015250565b6000612fed6020836122c2565b9150612ff882612fb7565b602082019050919050565b6000602082019050818103600083015261301c81612fe0565b9050919050565b7f45524337323155524953746f726167653a2055524920736574206f66206e6f6e60008201527f6578697374656e7420746f6b656e000000000000000000000000000000000000602082015250565b600061307f602e836122c2565b915061308a82613023565b604082019050919050565b600060208201905081810360008301526130ae81613072565b9050919050565b600081905092915050565b60006130cb826122b7565b6130d581856130b5565b93506130e58185602086016122d3565b80840191505092915050565b60006130fd82856130c0565b915061310982846130c0565b91508190509392505050565b7f4552433732313a207472616e7366657220746f206e6f6e20455243373231526560008201527f63656976657220696d706c656d656e7465720000000000000000000000000000602082015250565b60006131716032836122c2565b915061317c82613115565b604082019050919050565b600060208201905081810360008301526131a081613164565b9050919050565b7f4552433732313a206d696e7420746f20746865207a65726f2061646472657373600082015250565b60006131dd6020836122c2565b91506131e8826131a7565b602082019050919050565b6000602082019050818103600083015261320c816131d0565b9050919050565b7f4552433732313a20746f6b656e20616c7265616479206d696e74656400000000600082015250565b6000613249601c836122c2565b915061325482613213565b602082019050919050565b600060208201905081810360008301526132788161323c565b9050919050565b600081519050919050565b600082825260208201905092915050565b60006132a68261327f565b6132b0818561328a565b93506132c08185602086016122d3565b6132c9816122fd565b840191505092915050565b60006080820190506132e960008301876123fe565b6132f660208301866123fe565b6133036040830185612494565b8181036060830152613315818461329b565b905095945050505050565b60008151905061332f81612228565b92915050565b60006020828403121561334b5761334a6121f2565b5b600061335984828501613320565b91505092915050565b7f4e487b7100000000000000000000000000000000000000000000000000000000600052601260045260246000fd5b7f455243373231456e756d657261626c653a20636f6e736563757469766520747260008201527f616e7366657273206e6f7420737570706f727465640000000000000000000000602082015250565b60006133ed6035836122c2565b91506133f882613391565b604082019050919050565b6000602082019050818103600083015261341c816133e0565b9050919050565b7f4e487b7100000000000000000000000000000000000000000000000000000000600052601160045260246000fd5b600061345d82612369565b915061346883612369565b92508282039050818111156134805761347f613423565b5b92915050565b7f4e487b7100000000000000000000000000000000000000000000000000000000600052603160045260246000fdfea2646970667358221220621f8632497cbaf0c5e69bd1c94117f7eaab33ed9c05b6e2b976c429cf98200964736f6c6343000813003368747470733a2f2f697066732e696f2f697066732f516d584e65464b6d633744463648706778637757383546636b355241356159355a56674e75666e61617970443750",
  "linkReferences": {},
  "deployedLinkReferences": {}
}