{
  "_format": "hh-sol-artifact-1",
  "contractName": "GreenSwitchSoulboundToken",
  "sourceName": "contracts/GreenSwitchSoulboundToken.sol",
  "abi": [
    {
      "inputs": [],
      "stateMutability": "nonpayable",
      "type": "constructor"
    },
    {
      "anonymous": false,
      "inputs": [
        {
          "indexed": true,
          "internalType": "address",
          "name": "owner",
          "type": "address"
        },
        {
          "indexed": true,
          "internalType": "address",
          "name": "approved",
          "type": "address"
        },
        {
          "indexed": true,
          "internalType": "uint256",
          "name": "tokenId",
          "type": "uint256"
        }
      ],
      "name": "Approval",
      "type": "event"
    },
    {
      "anonymous": false,
      "inputs": [
        {
          "indexed": true,
          "internalType": "address",
          "name": "owner",
          "type": "address"
        },
        {
          "indexed": true,
          "internalType": "address",
          "name": "operator",
          "type": "address"
        },
        {
          "indexed": false,
          "internalType": "bool",
          "name": "approved",
          "type": "bool"
        }
      ],
      "name": "ApprovalForAll",
      "type": "event"
    },
    {
      "anonymous": false,
      "inputs": [
        {
          "indexed": false,
          "internalType": "uint256",
          "name": "_fromTokenId",
          "type": "uint256"
        },
        {
          "indexed": false,
          "internalType": "uint256",
          "name": "_toTokenId",
          "type": "uint256"
        }
      ],
      "name": "BatchMetadataUpdate",
      "type": "event"
    },
    {
      "anonymous": false,
      "inputs": [
        {
          "indexed": false,
          "internalType": "uint256",
          "name": "_tokenId",
          "type": "uint256"
        }
      ],
      "name": "MetadataUpdate",
      "type": "event"
    },
    {
      "anonymous": false,
      "inputs": [
        {
          "indexed": true,
          "internalType": "address",
          "name": "previousOwner",
          "type": "address"
        },
        {
          "indexed": true,
          "internalType": "address",
          "name": "newOwner",
          "type": "address"
        }
      ],
      "name": "OwnershipTransferred",
      "type": "event"
    },
    {
      "anonymous": false,
      "inputs": [
        {
          "indexed": true,
          "internalType": "address",
          "name": "from",
          "type": "address"
        },
        {
          "indexed": true,
          "internalType": "address",
          "name": "to",
          "type": "address"
        },
        {
          "indexed": true,
          "internalType": "uint256",
          "name": "tokenId",
          "type": "uint256"
        }
      ],
      "name": "Transfer",
      "type": "event"
    },
    {
      "inputs": [
        {
          "internalType": "address",
          "name": "to",
          "type": "address"
        },
        {
          "internalType": "uint256",
          "name": "tokenId",
          "type": "uint256"
        }
      ],
      "name": "approve",
      "outputs": [],
      "stateMutability": "nonpayable",
      "type": "function"
    },
    {
      "inputs": [
        {
          "internalType": "address",
          "name": "owner",
          "type": "address"
        }
      ],
      "name": "balanceOf",
      "outputs": [
        {
          "internalType": "uint256",
          "name": "",
          "type": "uint256"
        }
      ],
      "stateMutability": "view",
      "type": "function"
    },
    {
      "inputs": [
        {
          "internalType": "uint256",
          "name": "tokenId",
          "type": "uint256"
        }
      ],
      "name": "burn",
      "outputs": [],
      "stateMutability": "nonpayable",
      "type": "function"
    },
    {
      "inputs": [
        {
          "internalType": "string",
          "name": "_url",
          "type": "string"
        }
      ],
      "name": "changeSBTImage",
      "outputs": [],
      "stateMutability": "nonpayable",
      "type": "function"
    },
    {
      "inputs": [
        {
          "internalType": "uint256",
          "name": "tokenId",
          "type": "uint256"
        }
      ],
      "name": "getApproved",
      "outputs": [
        {
          "internalType": "address",
          "name": "",
          "type": "address"
        }
      ],
      "stateMutability": "view",
      "type": "function"
    },
    {
      "inputs": [
        {
          "internalType": "address",
          "name": "",
          "type": "address"
        }
      ],
      "name": "gettokenIdByAddress",
      "outputs": [
        {
          "internalType": "uint256",
          "name": "",
          "type": "uint256"
        }
      ],
      "stateMutability": "view",
      "type": "function"
    },
    {
      "inputs": [
        {
          "internalType": "address",
          "name": "owner",
          "type": "address"
        },
        {
          "internalType": "address",
          "name": "operator",
          "type": "address"
        }
      ],
      "name": "isApprovedForAll",
      "outputs": [
        {
          "internalType": "bool",
          "name": "",
          "type": "bool"
        }
      ],
      "stateMutability": "view",
      "type": "function"
    },
    {
      "inputs": [],
      "name": "name",
      "outputs": [
        {
          "internalType": "string",
          "name": "",
          "type": "string"
        }
      ],
      "stateMutability": "view",
      "type": "function"
    },
    {
      "inputs": [],
      "name": "owner",
      "outputs": [
        {
          "internalType": "address",
          "name": "",
          "type": "address"
        }
      ],
      "stateMutability": "view",
      "type": "function"
    },
    {
      "inputs": [
        {
          "internalType": "uint256",
          "name": "tokenId",
          "type": "uint256"
        }
      ],
      "name": "ownerOf",
      "outputs": [
        {
          "internalType": "address",
          "name": "",
          "type": "address"
        }
      ],
      "stateMutability": "view",
      "type": "function"
    },
    {
      "inputs": [],
      "name": "renounceOwnership",
      "outputs": [],
      "stateMutability": "nonpayable",
      "type": "function"
    },
    {
      "inputs": [
        {
          "internalType": "address",
          "name": "to",
          "type": "address"
        }
      ],
      "name": "safeMint",
      "outputs": [],
      "stateMutability": "nonpayable",
      "type": "function"
    },
    {
      "inputs": [
        {
          "internalType": "address",
          "name": "from",
          "type": "address"
        },
        {
          "internalType": "address",
          "name": "to",
          "type": "address"
        },
        {
          "internalType": "uint256",
          "name": "tokenId",
          "type": "uint256"
        }
      ],
      "name": "safeTransferFrom",
      "outputs": [],
      "stateMutability": "nonpayable",
      "type": "function"
    },
    {
      "inputs": [
        {
          "internalType": "address",
          "name": "from",
          "type": "address"
        },
        {
          "internalType": "address",
          "name": "to",
          "type": "address"
        },
        {
          "internalType": "uint256",
          "name": "tokenId",
          "type": "uint256"
        },
        {
          "internalType": "bytes",
          "name": "data",
          "type": "bytes"
        }
      ],
      "name": "safeTransferFrom",
      "outputs": [],
      "stateMutability": "nonpayable",
      "type": "function"
    },
    {
      "inputs": [
        {
          "internalType": "address",
          "name": "operator",
          "type": "address"
        },
        {
          "internalType": "bool",
          "name": "approved",
          "type": "bool"
        }
      ],
      "name": "setApprovalForAll",
      "outputs": [],
      "stateMutability": "nonpayable",
      "type": "function"
    },
    {
      "inputs": [
        {
          "internalType": "bytes4",
          "name": "interfaceId",
          "type": "bytes4"
        }
      ],
      "name": "supportsInterface",
      "outputs": [
        {
          "internalType": "bool",
          "name": "",
          "type": "bool"
        }
      ],
      "stateMutability": "view",
      "type": "function"
    },
    {
      "inputs": [],
      "name": "symbol",
      "outputs": [
        {
          "internalType": "string",
          "name": "",
          "type": "string"
        }
      ],
      "stateMutability": "view",
      "type": "function"
    },
    {
      "inputs": [
        {
          "internalType": "uint256",
          "name": "index",
          "type": "uint256"
        }
      ],
      "name": "tokenByIndex",
      "outputs": [
        {
          "internalType": "uint256",
          "name": "",
          "type": "uint256"
        }
      ],
      "stateMutability": "view",
      "type": "function"
    },
    {
      "inputs": [
        {
          "internalType": "address",
          "name": "owner",
          "type": "address"
        },
        {
          "internalType": "uint256",
          "name": "index",
          "type": "uint256"
        }
      ],
      "name": "tokenOfOwnerByIndex",
      "outputs": [
        {
          "internalType": "uint256",
          "name": "",
          "type": "uint256"
        }
      ],
      "stateMutability": "view",
      "type": "function"
    },
    {
      "inputs": [
        {
          "internalType": "uint256",
          "name": "tokenId",
          "type": "uint256"
        }
      ],
      "name": "tokenURI",
      "outputs": [
        {
          "internalType": "string",
          "name": "",
          "type": "string"
        }
      ],
      "stateMutability": "view",
      "type": "function"
    },
    {
      "inputs": [],
      "name": "totalSupply",
      "outputs": [
        {
          "internalType": "uint256",
          "name": "",
          "type": "uint256"
        }
      ],
      "stateMutability": "view",
      "type": "function"
    },
    {
      "inputs": [
        {
          "internalType": "address",
          "name": "from",
          "type": "address"
        },
        {
          "internalType": "address",
          "name": "to",
          "type": "address"
        },
        {
          "internalType": "uint256",
          "name": "tokenId",
          "type": "uint256"
        }
      ],
      "name": "transferFrom",
      "outputs": [],
      "stateMutability": "nonpayable",
      "type": "function"
    },
    {
      "inputs": [
        {
          "internalType": "address",
          "name": "newOwner",
          "type": "address"
        }
      ],
      "name": "transferOwnership",
      "outputs": [],
      "stateMutability": "nonpayable",
      "type": "function"
    },
    {
      "inputs": [],
      "name": "uri",
      "outputs": [
        {
          "internalType": "string",
          "name": "",
          "type": "string"
        }
      ],
      "stateMutability": "view",
      "type": "function"
    }
  ],
  "bytecode": "0x6080604052604051806080016040528060438152602001620038ec60439139600c90816200002e91906200043d565b503480156200003c57600080fd5b506040518060400160405280601b81526020017f477265656e53776974636820536f756c626f756e6420546f6b656e00000000008152506040518060400160405280600381526020017f47535400000000000000000000000000000000000000000000000000000000008152508160009081620000ba91906200043d565b508060019081620000cc91906200043d565b505050620000ef620000e3620000f560201b60201c565b620000fd60201b60201c565b62000524565b600033905090565b6000600b60009054906101000a900473ffffffffffffffffffffffffffffffffffffffff16905081600b60006101000a81548173ffffffffffffffffffffffffffffffffffffffff021916908373ffffffffffffffffffffffffffffffffffffffff1602179055508173ffffffffffffffffffffffffffffffffffffffff168173ffffffffffffffffffffffffffffffffffffffff167f8be0079c531659141344cd1fd0a4f28419497f9722a3daafe3b4186f6b6457e060405160405180910390a35050565b600081519050919050565b7f4e487b7100000000000000000000000000000000000000000000000000000000600052604160045260246000fd5b7f4e487b7100000000000000000000000000000000000000000000000000000000600052602260045260246000fd5b600060028204905060018216806200024557607f821691505b6020821081036200025b576200025a620001fd565b5b50919050565b60008190508160005260206000209050919050565b60006020601f8301049050919050565b600082821b905092915050565b600060088302620002c57fffffffffffffffffffffffffffffffffffffffffffffffffffffffffffffffff8262000286565b620002d1868362000286565b95508019841693508086168417925050509392505050565b6000819050919050565b6000819050919050565b60006200031e620003186200031284620002e9565b620002f3565b620002e9565b9050919050565b6000819050919050565b6200033a83620002fd565b62000352620003498262000325565b84845462000293565b825550505050565b600090565b620003696200035a565b620003768184846200032f565b505050565b5b818110156200039e57620003926000826200035f565b6001810190506200037c565b5050565b601f821115620003ed57620003b78162000261565b620003c28462000276565b81016020851015620003d2578190505b620003ea620003e18562000276565b8301826200037b565b50505b505050565b600082821c905092915050565b60006200041260001984600802620003f2565b1980831691505092915050565b60006200042d8383620003ff565b9150826002028217905092915050565b6200044882620001c3565b67ffffffffffffffff811115620004645762000463620001ce565b5b6200047082546200022c565b6200047d828285620003a2565b600060209050601f831160018114620004b55760008415620004a0578287015190505b620004ac85826200041f565b8655506200051c565b601f198416620004c58662000261565b60005b82811015620004ef57848901518255600182019150602085019450602081019050620004c8565b868310156200050f57848901516200050b601f891682620003ff565b8355505b6001600288020188555050505b505050505050565b6133b880620005346000396000f3fe608060405234801561001057600080fd5b50600436106101585760003560e01c80636352211e116100c3578063a22cb4651161007c578063a22cb465146103d7578063b88d4fde146103f3578063c87b56dd1461040f578063e985e9c51461043f578063eac989f81461046f578063f2fde38b1461048d57610158565b80636352211e146103015780636a79d8e81461033157806370a0823114610361578063715018a6146103915780638da5cb5b1461039b57806395d89b41146103b957610158565b806323b872dd1161011557806323b872dd146102315780632f745c591461024d57806340d097c31461027d57806342842e0e1461029957806342966c68146102b55780634f6ccce7146102d157610158565b806301ffc9a71461015d57806306fdde031461018d578063081812fc146101ab578063095ea7b3146101db57806318160ddd146101f75780631b88432f14610215575b600080fd5b6101776004803603810190610172919061218d565b6104a9565b60405161018491906121d5565b60405180910390f35b6101956104bb565b6040516101a29190612280565b60405180910390f35b6101c560048036038101906101c091906122d8565b61054d565b6040516101d29190612346565b60405180910390f35b6101f560048036038101906101f0919061238d565b610593565b005b6101ff6105ce565b60405161020c91906123dc565b60405180910390f35b61022f600480360381019061022a919061252c565b6105db565b005b61024b60048036038101906102469190612575565b6105f6565b005b6102676004803603810190610262919061238d565b610631565b60405161027491906123dc565b60405180910390f35b610297600480360381019061029291906125c8565b6106d6565b005b6102b360048036038101906102ae9190612575565b6107dc565b005b6102cf60048036038101906102ca91906122d8565b610817565b005b6102eb60048036038101906102e691906122d8565b6108dc565b6040516102f891906123dc565b60405180910390f35b61031b600480360381019061031691906122d8565b61094d565b6040516103289190612346565b60405180910390f35b61034b600480360381019061034691906125c8565b6109d3565b60405161035891906123dc565b60405180910390f35b61037b600480360381019061037691906125c8565b6109eb565b60405161038891906123dc565b60405180910390f35b610399610aa2565b005b6103a3610ab6565b6040516103b09190612346565b60405180910390f35b6103c1610ae0565b6040516103ce9190612280565b60405180910390f35b6103f160048036038101906103ec9190612621565b610b72565b005b61040d60048036038101906104089190612702565b610bad565b005b610429600480360381019061042491906122d8565b610be8565b6040516104369190612280565b60405180910390f35b61045960048036038101906104549190612785565b610bfa565b60405161046691906121d5565b60405180910390f35b610477610c8e565b6040516104849190612280565b60405180910390f35b6104a760048036038101906104a291906125c8565b610d1c565b005b60006104b482610d9f565b9050919050565b6060600080546104ca906127f4565b80601f01602080910402602001604051908101604052809291908181526020018280546104f6906127f4565b80156105435780601f1061051857610100808354040283529160200191610543565b820191906000526020600020905b81548152906001019060200180831161052657829003601f168201915b5050505050905090565b600061055882610e00565b6004600083815260200190815260200160002060009054906101000a900473ffffffffffffffffffffffffffffffffffffffff169050919050565b6040517f08c379a00000000000000000000000000000000000000000000000000000000081526004016105c590612871565b60405180910390fd5b6000600880549050905090565b6105e3610e4b565b80600c90816105f29190612a3d565b5050565b6040517f08c379a000000000000000000000000000000000000000000000000000000000815260040161062890612871565b60405180910390fd5b600061063c836109eb565b821061067d576040517f08c379a000000000000000000000000000000000000000000000000000000000815260040161067490612b81565b60405180910390fd5b600660008473ffffffffffffffffffffffffffffffffffffffff1673ffffffffffffffffffffffffffffffffffffffff168152602001908152602001600020600083815260200190815260200160002054905092915050565b6106de610e4b565b6106e8600d610ec9565b60006106f4600d610edf565b90506107008282610eed565b61079481600c8054610711906127f4565b80601f016020809104026020016040519081016040528092919081815260200182805461073d906127f4565b801561078a5780601f1061075f5761010080835404028352916020019161078a565b820191906000526020600020905b81548152906001019060200180831161076d57829003601f168201915b5050505050610f0b565b80600e60008473ffffffffffffffffffffffffffffffffffffffff1673ffffffffffffffffffffffffffffffffffffffff168152602001908152602001600020819055505050565b6040517f08c379a000000000000000000000000000000000000000000000000000000000815260040161080e90612871565b60405180910390fd5b60006108228261094d565b90508073ffffffffffffffffffffffffffffffffffffffff163373ffffffffffffffffffffffffffffffffffffffff1614806108905750610861610ab6565b73ffffffffffffffffffffffffffffffffffffffff163373ffffffffffffffffffffffffffffffffffffffff16145b6108cf576040517f08c379a00000000000000000000000000000000000000000000000000000000081526004016108c690612c13565b60405180910390fd5b6108d882610faf565b5050565b60006108e66105ce565b8210610927576040517f08c379a000000000000000000000000000000000000000000000000000000000815260040161091e90612ca5565b60405180910390fd5b6008828154811061093b5761093a612cc5565b5b90600052602060002001549050919050565b60008061095983610fbb565b9050600073ffffffffffffffffffffffffffffffffffffffff168173ffffffffffffffffffffffffffffffffffffffff16036109ca576040517f08c379a00000000000000000000000000000000000000000000000000000000081526004016109c190612d40565b60405180910390fd5b80915050919050565b600e6020528060005260406000206000915090505481565b60008073ffffffffffffffffffffffffffffffffffffffff168273ffffffffffffffffffffffffffffffffffffffff1603610a5b576040517f08c379a0000000000000000000000000000000000000000000000000000000008152600401610a5290612dd2565b60405180910390fd5b600360008373ffffffffffffffffffffffffffffffffffffffff1673ffffffffffffffffffffffffffffffffffffffff168152602001908152602001600020549050919050565b610aaa610e4b565b610ab46000610ff8565b565b6000600b60009054906101000a900473ffffffffffffffffffffffffffffffffffffffff16905090565b606060018054610aef906127f4565b80601f0160208091040260200160405190810160405280929190818152602001828054610b1b906127f4565b8015610b685780601f10610b3d57610100808354040283529160200191610b68565b820191906000526020600020905b815481529060010190602001808311610b4b57829003601f168201915b5050505050905090565b6040517f08c379a0000000000000000000000000000000000000000000000000000000008152600401610ba490612871565b60405180910390fd5b6040517f08c379a0000000000000000000000000000000000000000000000000000000008152600401610bdf90612871565b60405180910390fd5b6060610bf3826110be565b9050919050565b6000600560008473ffffffffffffffffffffffffffffffffffffffff1673ffffffffffffffffffffffffffffffffffffffff16815260200190815260200160002060008373ffffffffffffffffffffffffffffffffffffffff1673ffffffffffffffffffffffffffffffffffffffff16815260200190815260200160002060009054906101000a900460ff16905092915050565b600c8054610c9b906127f4565b80601f0160208091040260200160405190810160405280929190818152602001828054610cc7906127f4565b8015610d145780601f10610ce957610100808354040283529160200191610d14565b820191906000526020600020905b815481529060010190602001808311610cf757829003601f168201915b505050505081565b610d24610e4b565b600073ffffffffffffffffffffffffffffffffffffffff168173ffffffffffffffffffffffffffffffffffffffff1603610d93576040517f08c379a0000000000000000000000000000000000000000000000000000000008152600401610d8a90612e64565b60405180910390fd5b610d9c81610ff8565b50565b6000634906490660e01b7bffffffffffffffffffffffffffffffffffffffffffffffffffffffff1916827bffffffffffffffffffffffffffffffffffffffffffffffffffffffff19161480610df95750610df8826111d0565b5b9050919050565b610e098161124a565b610e48576040517f08c379a0000000000000000000000000000000000000000000000000000000008152600401610e3f90612d40565b60405180910390fd5b50565b610e5361128b565b73ffffffffffffffffffffffffffffffffffffffff16610e71610ab6565b73ffffffffffffffffffffffffffffffffffffffff1614610ec7576040517f08c379a0000000000000000000000000000000000000000000000000000000008152600401610ebe90612ed0565b60405180910390fd5b565b6001816000016000828254019250508190555050565b600081600001549050919050565b610f07828260405180602001604052806000815250611293565b5050565b610f148261124a565b610f53576040517f08c379a0000000000000000000000000000000000000000000000000000000008152600401610f4a90612f62565b60405180910390fd5b80600a60008481526020019081526020016000209081610f739190612a3d565b507ff8e1a15aba9398e019f0b49df1a4fde98ee17ae345cb5f6b5e2c27f5033e8ce782604051610fa391906123dc565b60405180910390a15050565b610fb8816112ee565b50565b60006002600083815260200190815260200160002060009054906101000a900473ffffffffffffffffffffffffffffffffffffffff169050919050565b6000600b60009054906101000a900473ffffffffffffffffffffffffffffffffffffffff16905081600b60006101000a81548173ffffffffffffffffffffffffffffffffffffffff021916908373ffffffffffffffffffffffffffffffffffffffff1602179055508173ffffffffffffffffffffffffffffffffffffffff168173ffffffffffffffffffffffffffffffffffffffff167f8be0079c531659141344cd1fd0a4f28419497f9722a3daafe3b4186f6b6457e060405160405180910390a35050565b60606110c982610e00565b6000600a600084815260200190815260200160002080546110e9906127f4565b80601f0160208091040260200160405190810160405280929190818152602001828054611115906127f4565b80156111625780601f1061113757610100808354040283529160200191611162565b820191906000526020600020905b81548152906001019060200180831161114557829003601f168201915b505050505090506000611173611341565b905060008151036111885781925050506111cb565b6000825111156111bd5780826040516020016111a5929190612fbe565b604051602081830303815290604052925050506111cb565b6111c684611358565b925050505b919050565b60007f780e9d63000000000000000000000000000000000000000000000000000000007bffffffffffffffffffffffffffffffffffffffffffffffffffffffff1916827bffffffffffffffffffffffffffffffffffffffffffffffffffffffff191614806112435750611242826113c0565b5b9050919050565b60008073ffffffffffffffffffffffffffffffffffffffff1661126c83610fbb565b73ffffffffffffffffffffffffffffffffffffffff1614159050919050565b600033905090565b61129d83836114a2565b6112aa60008484846116bf565b6112e9576040517f08c379a00000000000000000000000000000000000000000000000000000000081526004016112e090613054565b60405180910390fd5b505050565b6112f781611846565b6000600a60008381526020019081526020016000208054611317906127f4565b90501461133e57600a6000828152602001908152602001600020600061133d91906120c4565b5b50565b606060405180602001604052806000815250905090565b606061136382610e00565b600061136d611341565b9050600081511161138d57604051806020016040528060008152506113b8565b8061139784611994565b6040516020016113a8929190612fbe565b6040516020818303038152906040525b915050919050565b60007f80ac58cd000000000000000000000000000000000000000000000000000000007bffffffffffffffffffffffffffffffffffffffffffffffffffffffff1916827bffffffffffffffffffffffffffffffffffffffffffffffffffffffff1916148061148b57507f5b5e139f000000000000000000000000000000000000000000000000000000007bffffffffffffffffffffffffffffffffffffffffffffffffffffffff1916827bffffffffffffffffffffffffffffffffffffffffffffffffffffffff1916145b8061149b575061149a82611a62565b5b9050919050565b600073ffffffffffffffffffffffffffffffffffffffff168273ffffffffffffffffffffffffffffffffffffffff1603611511576040517f08c379a0000000000000000000000000000000000000000000000000000000008152600401611508906130c0565b60405180910390fd5b61151a8161124a565b1561155a576040517f08c379a00000000000000000000000000000000000000000000000000000000081526004016115519061312c565b60405180910390fd5b611568600083836001611acc565b6115718161124a565b156115b1576040517f08c379a00000000000000000000000000000000000000000000000000000000081526004016115a89061312c565b60405180910390fd5b6001600360008473ffffffffffffffffffffffffffffffffffffffff1673ffffffffffffffffffffffffffffffffffffffff16815260200190815260200160002060008282540192505081905550816002600083815260200190815260200160002060006101000a81548173ffffffffffffffffffffffffffffffffffffffff021916908373ffffffffffffffffffffffffffffffffffffffff160217905550808273ffffffffffffffffffffffffffffffffffffffff16600073ffffffffffffffffffffffffffffffffffffffff167fddf252ad1be2c89b69c2b068fc378daa952ba7f163c4a11628f55a4df523b3ef60405160405180910390a46116bb600083836001611ade565b5050565b60006116e08473ffffffffffffffffffffffffffffffffffffffff16611ae4565b15611839578373ffffffffffffffffffffffffffffffffffffffff1663150b7a0261170961128b565b8786866040518563ffffffff1660e01b815260040161172b94939291906131a1565b6020604051808303816000875af192505050801561176757506040513d601f19601f820116820180604052508101906117649190613202565b60015b6117e9573d8060008114611797576040519150601f19603f3d011682016040523d82523d6000602084013e61179c565b606091505b5060008151036117e1576040517f08c379a00000000000000000000000000000000000000000000000000000000081526004016117d890613054565b60405180910390fd5b805181602001fd5b63150b7a0260e01b7bffffffffffffffffffffffffffffffffffffffffffffffffffffffff1916817bffffffffffffffffffffffffffffffffffffffffffffffffffffffff19161491505061183e565b600190505b949350505050565b60006118518261094d565b9050611861816000846001611acc565b61186a8261094d565b90506004600083815260200190815260200160002060006101000a81549073ffffffffffffffffffffffffffffffffffffffff02191690556001600360008373ffffffffffffffffffffffffffffffffffffffff1673ffffffffffffffffffffffffffffffffffffffff168152602001908152602001600020600082825403925050819055506002600083815260200190815260200160002060006101000a81549073ffffffffffffffffffffffffffffffffffffffff021916905581600073ffffffffffffffffffffffffffffffffffffffff168273ffffffffffffffffffffffffffffffffffffffff167fddf252ad1be2c89b69c2b068fc378daa952ba7f163c4a11628f55a4df523b3ef60405160405180910390a4611990816000846001611ade565b5050565b6060600060016119a384611b07565b01905060008167ffffffffffffffff8111156119c2576119c1612401565b5b6040519080825280601f01601f1916602001820160405280156119f45781602001600182028036833780820191505090505b509050600082602001820190505b600115611a57578080600190039150507f3031323334353637383961626364656600000000000000000000000000000000600a86061a8153600a8581611a4b57611a4a61322f565b5b04945060008503611a02575b819350505050919050565b60007f01ffc9a7000000000000000000000000000000000000000000000000000000007bffffffffffffffffffffffffffffffffffffffffffffffffffffffff1916827bffffffffffffffffffffffffffffffffffffffffffffffffffffffff1916149050919050565b611ad884848484611c5a565b50505050565b50505050565b6000808273ffffffffffffffffffffffffffffffffffffffff163b119050919050565b600080600090507a184f03e93ff9f4daa797ed6e38ed64bf6a1f0100000000000000008310611b65577a184f03e93ff9f4daa797ed6e38ed64bf6a1f0100000000000000008381611b5b57611b5a61322f565b5b0492506040810190505b6d04ee2d6d415b85acef81000000008310611ba2576d04ee2d6d415b85acef81000000008381611b9857611b9761322f565b5b0492506020810190505b662386f26fc100008310611bd157662386f26fc100008381611bc757611bc661322f565b5b0492506010810190505b6305f5e1008310611bfa576305f5e1008381611bf057611bef61322f565b5b0492506008810190505b6127108310611c1f576127108381611c1557611c1461322f565b5b0492506004810190505b60648310611c425760648381611c3857611c3761322f565b5b0492506002810190505b600a8310611c51576001810190505b80915050919050565b611c6684848484611db8565b6001811115611caa576040517f08c379a0000000000000000000000000000000000000000000000000000000008152600401611ca1906132d0565b60405180910390fd5b6000829050600073ffffffffffffffffffffffffffffffffffffffff168573ffffffffffffffffffffffffffffffffffffffff1603611cf157611cec81611dbe565b611d30565b8373ffffffffffffffffffffffffffffffffffffffff168573ffffffffffffffffffffffffffffffffffffffff1614611d2f57611d2e8582611e07565b5b5b600073ffffffffffffffffffffffffffffffffffffffff168473ffffffffffffffffffffffffffffffffffffffff1603611d7257611d6d81611f74565b611db1565b8473ffffffffffffffffffffffffffffffffffffffff168473ffffffffffffffffffffffffffffffffffffffff1614611db057611daf8482612045565b5b5b5050505050565b50505050565b6008805490506009600083815260200190815260200160002081905550600881908060018154018082558091505060019003906000526020600020016000909190919091505550565b60006001611e14846109eb565b611e1e919061331f565b9050600060076000848152602001908152602001600020549050818114611f03576000600660008673ffffffffffffffffffffffffffffffffffffffff1673ffffffffffffffffffffffffffffffffffffffff168152602001908152602001600020600084815260200190815260200160002054905080600660008773ffffffffffffffffffffffffffffffffffffffff1673ffffffffffffffffffffffffffffffffffffffff168152602001908152602001600020600084815260200190815260200160002081905550816007600083815260200190815260200160002081905550505b6007600084815260200190815260200160002060009055600660008573ffffffffffffffffffffffffffffffffffffffff1673ffffffffffffffffffffffffffffffffffffffff16815260200190815260200160002060008381526020019081526020016000206000905550505050565b60006001600880549050611f88919061331f565b9050600060096000848152602001908152602001600020549050600060088381548110611fb857611fb7612cc5565b5b906000526020600020015490508060088381548110611fda57611fd9612cc5565b5b90600052602060002001819055508160096000838152602001908152602001600020819055506009600085815260200190815260200160002060009055600880548061202957612028613353565b5b6001900381819060005260206000200160009055905550505050565b6000612050836109eb565b905081600660008573ffffffffffffffffffffffffffffffffffffffff1673ffffffffffffffffffffffffffffffffffffffff168152602001908152602001600020600083815260200190815260200160002081905550806007600084815260200190815260200160002081905550505050565b5080546120d0906127f4565b6000825580601f106120e25750612101565b601f0160209004906000526020600020908101906121009190612104565b5b50565b5b8082111561211d576000816000905550600101612105565b5090565b6000604051905090565b600080fd5b600080fd5b60007fffffffff0000000000000000000000000000000000000000000000000000000082169050919050565b61216a81612135565b811461217557600080fd5b50565b60008135905061218781612161565b92915050565b6000602082840312156121a3576121a261212b565b5b60006121b184828501612178565b91505092915050565b60008115159050919050565b6121cf816121ba565b82525050565b60006020820190506121ea60008301846121c6565b92915050565b600081519050919050565b600082825260208201905092915050565b60005b8381101561222a57808201518184015260208101905061220f565b60008484015250505050565b6000601f19601f8301169050919050565b6000612252826121f0565b61225c81856121fb565b935061226c81856020860161220c565b61227581612236565b840191505092915050565b6000602082019050818103600083015261229a8184612247565b905092915050565b6000819050919050565b6122b5816122a2565b81146122c057600080fd5b50565b6000813590506122d2816122ac565b92915050565b6000602082840312156122ee576122ed61212b565b5b60006122fc848285016122c3565b91505092915050565b600073ffffffffffffffffffffffffffffffffffffffff82169050919050565b600061233082612305565b9050919050565b61234081612325565b82525050565b600060208201905061235b6000830184612337565b92915050565b61236a81612325565b811461237557600080fd5b50565b60008135905061238781612361565b92915050565b600080604083850312156123a4576123a361212b565b5b60006123b285828601612378565b92505060206123c3858286016122c3565b9150509250929050565b6123d6816122a2565b82525050565b60006020820190506123f160008301846123cd565b92915050565b600080fd5b600080fd5b7f4e487b7100000000000000000000000000000000000000000000000000000000600052604160045260246000fd5b61243982612236565b810181811067ffffffffffffffff8211171561245857612457612401565b5b80604052505050565b600061246b612121565b90506124778282612430565b919050565b600067ffffffffffffffff82111561249757612496612401565b5b6124a082612236565b9050602081019050919050565b82818337600083830152505050565b60006124cf6124ca8461247c565b612461565b9050828152602081018484840111156124eb576124ea6123fc565b5b6124f68482856124ad565b509392505050565b600082601f830112612513576125126123f7565b5b81356125238482602086016124bc565b91505092915050565b6000602082840312156125425761254161212b565b5b600082013567ffffffffffffffff8111156125605761255f612130565b5b61256c848285016124fe565b91505092915050565b60008060006060848603121561258e5761258d61212b565b5b600061259c86828701612378565b93505060206125ad86828701612378565b92505060406125be868287016122c3565b9150509250925092565b6000602082840312156125de576125dd61212b565b5b60006125ec84828501612378565b91505092915050565b6125fe816121ba565b811461260957600080fd5b50565b60008135905061261b816125f5565b92915050565b600080604083850312156126385761263761212b565b5b600061264685828601612378565b92505060206126578582860161260c565b9150509250929050565b600067ffffffffffffffff82111561267c5761267b612401565b5b61268582612236565b9050602081019050919050565b60006126a56126a084612661565b612461565b9050828152602081018484840111156126c1576126c06123fc565b5b6126cc8482856124ad565b509392505050565b600082601f8301126126e9576126e86123f7565b5b81356126f9848260208601612692565b91505092915050565b6000806000806080858703121561271c5761271b61212b565b5b600061272a87828801612378565b945050602061273b87828801612378565b935050604061274c878288016122c3565b925050606085013567ffffffffffffffff81111561276d5761276c612130565b5b612779878288016126d4565b91505092959194509250565b6000806040838503121561279c5761279b61212b565b5b60006127aa85828601612378565b92505060206127bb85828601612378565b9150509250929050565b7f4e487b7100000000000000000000000000000000000000000000000000000000600052602260045260246000fd5b6000600282049050600182168061280c57607f821691505b60208210810361281f5761281e6127c5565b5b50919050565b7f536f727279207468697320536f756c626f756e6420546f6b656e000000000000600082015250565b600061285b601a836121fb565b915061286682612825565b602082019050919050565b6000602082019050818103600083015261288a8161284e565b9050919050565b60008190508160005260206000209050919050565b60006020601f8301049050919050565b600082821b905092915050565b6000600883026128f37fffffffffffffffffffffffffffffffffffffffffffffffffffffffffffffffff826128b6565b6128fd86836128b6565b95508019841693508086168417925050509392505050565b6000819050919050565b600061293a612935612930846122a2565b612915565b6122a2565b9050919050565b6000819050919050565b6129548361291f565b61296861296082612941565b8484546128c3565b825550505050565b600090565b61297d612970565b61298881848461294b565b505050565b5b818110156129ac576129a1600082612975565b60018101905061298e565b5050565b601f8211156129f1576129c281612891565b6129cb846128a6565b810160208510156129da578190505b6129ee6129e6856128a6565b83018261298d565b50505b505050565b600082821c905092915050565b6000612a14600019846008026129f6565b1980831691505092915050565b6000612a2d8383612a03565b9150826002028217905092915050565b612a46826121f0565b67ffffffffffffffff811115612a5f57612a5e612401565b5b612a6982546127f4565b612a748282856129b0565b600060209050601f831160018114612aa75760008415612a95578287015190505b612a9f8582612a21565b865550612b07565b601f198416612ab586612891565b60005b82811015612add57848901518255600182019150602085019450602081019050612ab8565b86831015612afa5784890151612af6601f891682612a03565b8355505b6001600288020188555050505b505050505050565b7f455243373231456e756d657261626c653a206f776e657220696e646578206f7560008201527f74206f6620626f756e6473000000000000000000000000000000000000000000602082015250565b6000612b6b602b836121fb565b9150612b7682612b0f565b604082019050919050565b60006020820190508181036000830152612b9a81612b5e565b9050919050565b7f536f72727920796f7520617265206e6569746865722074686520746f6b656e2060008201527f6f776e6572206e6f7220636f6e7472616374206f776e65720000000000000000602082015250565b6000612bfd6038836121fb565b9150612c0882612ba1565b604082019050919050565b60006020820190508181036000830152612c2c81612bf0565b9050919050565b7f455243373231456e756d657261626c653a20676c6f62616c20696e646578206f60008201527f7574206f6620626f756e64730000000000000000000000000000000000000000602082015250565b6000612c8f602c836121fb565b9150612c9a82612c33565b604082019050919050565b60006020820190508181036000830152612cbe81612c82565b9050919050565b7f4e487b7100000000000000000000000000000000000000000000000000000000600052603260045260246000fd5b7f4552433732313a20696e76616c696420746f6b656e2049440000000000000000600082015250565b6000612d2a6018836121fb565b9150612d3582612cf4565b602082019050919050565b60006020820190508181036000830152612d5981612d1d565b9050919050565b7f4552433732313a2061646472657373207a65726f206973206e6f74206120766160008201527f6c6964206f776e65720000000000000000000000000000000000000000000000602082015250565b6000612dbc6029836121fb565b9150612dc782612d60565b604082019050919050565b60006020820190508181036000830152612deb81612daf565b9050919050565b7f4f776e61626c653a206e6577206f776e657220697320746865207a65726f206160008201527f6464726573730000000000000000000000000000000000000000000000000000602082015250565b6000612e4e6026836121fb565b9150612e5982612df2565b604082019050919050565b60006020820190508181036000830152612e7d81612e41565b9050919050565b7f4f776e61626c653a2063616c6c6572206973206e6f7420746865206f776e6572600082015250565b6000612eba6020836121fb565b9150612ec582612e84565b602082019050919050565b60006020820190508181036000830152612ee981612ead565b9050919050565b7f45524337323155524953746f726167653a2055524920736574206f66206e6f6e60008201527f6578697374656e7420746f6b656e000000000000000000000000000000000000602082015250565b6000612f4c602e836121fb565b9150612f5782612ef0565b604082019050919050565b60006020820190508181036000830152612f7b81612f3f565b9050919050565b600081905092915050565b6000612f98826121f0565b612fa28185612f82565b9350612fb281856020860161220c565b80840191505092915050565b6000612fca8285612f8d565b9150612fd68284612f8d565b91508190509392505050565b7f4552433732313a207472616e7366657220746f206e6f6e20455243373231526560008201527f63656976657220696d706c656d656e7465720000000000000000000000000000602082015250565b600061303e6032836121fb565b915061304982612fe2565b604082019050919050565b6000602082019050818103600083015261306d81613031565b9050919050565b7f4552433732313a206d696e7420746f20746865207a65726f2061646472657373600082015250565b60006130aa6020836121fb565b91506130b582613074565b602082019050919050565b600060208201905081810360008301526130d98161309d565b9050919050565b7f4552433732313a20746f6b656e20616c7265616479206d696e74656400000000600082015250565b6000613116601c836121fb565b9150613121826130e0565b602082019050919050565b6000602082019050818103600083015261314581613109565b9050919050565b600081519050919050565b600082825260208201905092915050565b60006131738261314c565b61317d8185613157565b935061318d81856020860161220c565b61319681612236565b840191505092915050565b60006080820190506131b66000830187612337565b6131c36020830186612337565b6131d060408301856123cd565b81810360608301526131e28184613168565b905095945050505050565b6000815190506131fc81612161565b92915050565b6000602082840312156132185761321761212b565b5b6000613226848285016131ed565b91505092915050565b7f4e487b7100000000000000000000000000000000000000000000000000000000600052601260045260246000fd5b7f455243373231456e756d657261626c653a20636f6e736563757469766520747260008201527f616e7366657273206e6f7420737570706f727465640000000000000000000000602082015250565b60006132ba6035836121fb565b91506132c58261325e565b604082019050919050565b600060208201905081810360008301526132e9816132ad565b9050919050565b7f4e487b7100000000000000000000000000000000000000000000000000000000600052601160045260246000fd5b600061332a826122a2565b9150613335836122a2565b925082820390508181111561334d5761334c6132f0565b5b92915050565b7f4e487b7100000000000000000000000000000000000000000000000000000000600052603160045260246000fdfea26469706673582212204df9c81245f3db43a5232dd121c4b73391572378ab87901540d73a0b69853e9064736f6c6343000813003368747470733a2f2f697066732e696f2f697066732f516d584e65464b6d633744463648706778637757383546636b355241356159355a56674e75666e61617970443750",
  "linkReferences": {},
  "deployedLinkReferences": {}
}